{
  "address": "0x24C0A4CEb85A13802382c880eAf02BE832244ce3",
  "abi": [
    {
      "inputs": [
        {
          "internalType": "string",
          "name": "nftName",
          "type": "string"
        },
        {
          "internalType": "string",
          "name": "nftShortHand",
          "type": "string"
        }
      ],
      "stateMutability": "nonpayable",
      "type": "constructor"
    },
    {
      "inputs": [],
      "name": "Product_Creator_Unidentified",
      "type": "error"
    },
    {
      "inputs": [],
      "name": "Product_Not_Purchased",
      "type": "error"
    },
    {
      "inputs": [],
      "name": "Product_Owner_Unidentified",
      "type": "error"
    },
    {
      "inputs": [],
      "name": "Product_WarrantyPeriod_Over",
      "type": "error"
    },
    {
      "anonymous": false,
      "inputs": [
        {
          "indexed": true,
          "internalType": "address",
          "name": "owner",
          "type": "address"
        },
        {
          "indexed": true,
          "internalType": "address",
          "name": "approved",
          "type": "address"
        },
        {
          "indexed": true,
          "internalType": "uint256",
          "name": "tokenId",
          "type": "uint256"
        }
      ],
      "name": "Approval",
      "type": "event"
    },
    {
      "anonymous": false,
      "inputs": [
        {
          "indexed": true,
          "internalType": "address",
          "name": "owner",
          "type": "address"
        },
        {
          "indexed": true,
          "internalType": "address",
          "name": "operator",
          "type": "address"
        },
        {
          "indexed": false,
          "internalType": "bool",
          "name": "approved",
          "type": "bool"
        }
      ],
      "name": "ApprovalForAll",
      "type": "event"
    },
    {
      "anonymous": false,
      "inputs": [
        {
          "indexed": true,
          "internalType": "address",
          "name": "from",
          "type": "address"
        },
        {
          "indexed": true,
          "internalType": "address",
          "name": "to",
          "type": "address"
        },
        {
          "indexed": true,
          "internalType": "uint256",
          "name": "tokenId",
          "type": "uint256"
        }
      ],
      "name": "Transfer",
      "type": "event"
    },
    {
      "inputs": [
        {
          "internalType": "address",
          "name": "to",
          "type": "address"
        },
        {
          "internalType": "uint256",
          "name": "tokenId",
          "type": "uint256"
        }
      ],
      "name": "approve",
      "outputs": [],
      "stateMutability": "nonpayable",
      "type": "function"
    },
    {
      "inputs": [
        {
          "internalType": "address",
          "name": "owner",
          "type": "address"
        }
      ],
      "name": "balanceOf",
      "outputs": [
        {
          "internalType": "uint256",
          "name": "",
          "type": "uint256"
        }
      ],
      "stateMutability": "view",
      "type": "function"
    },
    {
      "inputs": [
        {
          "internalType": "uint256",
          "name": "tokenId",
          "type": "uint256"
        }
      ],
      "name": "burn",
      "outputs": [],
      "stateMutability": "nonpayable",
      "type": "function"
    },
    {
      "inputs": [
        {
          "internalType": "bool",
          "name": "hasPurchased",
          "type": "bool"
        },
        {
          "internalType": "address",
          "name": "newOwner",
          "type": "address"
        },
        {
          "internalType": "uint256",
          "name": "tokenId",
          "type": "uint256"
        }
      ],
      "name": "changeCurrentOwner",
      "outputs": [],
      "stateMutability": "nonpayable",
      "type": "function"
    },
    {
      "inputs": [
        {
          "internalType": "uint256",
          "name": "tokenId",
          "type": "uint256"
        }
      ],
      "name": "getApproved",
      "outputs": [
        {
          "internalType": "address",
          "name": "",
          "type": "address"
        }
      ],
      "stateMutability": "view",
      "type": "function"
    },
    {
      "inputs": [],
      "name": "getBlockTimeStamp",
      "outputs": [
        {
          "internalType": "uint256",
          "name": "",
          "type": "uint256"
        }
      ],
      "stateMutability": "view",
      "type": "function"
    },
    {
      "inputs": [
        {
          "internalType": "uint256",
          "name": "tokenId",
          "type": "uint256"
        }
      ],
      "name": "getCurrentWarrantyDuration",
      "outputs": [
        {
          "internalType": "uint256",
          "name": "",
          "type": "uint256"
        }
      ],
      "stateMutability": "view",
      "type": "function"
    },
    {
      "inputs": [
        {
          "internalType": "uint256",
          "name": "tokenId",
          "type": "uint256"
        }
      ],
      "name": "getEndTime",
      "outputs": [
        {
          "internalType": "uint256",
          "name": "",
          "type": "uint256"
        }
      ],
      "stateMutability": "view",
      "type": "function"
    },
    {
      "inputs": [
        {
          "internalType": "uint256",
          "name": "tokenId",
          "type": "uint256"
        },
        {
          "internalType": "uint256",
          "name": "index",
          "type": "uint256"
        }
      ],
      "name": "getPreviousOwner",
      "outputs": [
        {
          "internalType": "address",
          "name": "",
          "type": "address"
        }
      ],
      "stateMutability": "view",
      "type": "function"
    },
    {
      "inputs": [
        {
          "internalType": "uint256",
          "name": "tokenId",
          "type": "uint256"
        }
      ],
      "name": "getStartTime",
      "outputs": [
        {
          "internalType": "uint256",
          "name": "",
          "type": "uint256"
        }
      ],
      "stateMutability": "view",
      "type": "function"
    },
    {
      "inputs": [
        {
          "internalType": "address",
          "name": "owner",
          "type": "address"
        },
        {
          "internalType": "address",
          "name": "operator",
          "type": "address"
        }
      ],
      "name": "isApprovedForAll",
      "outputs": [
        {
          "internalType": "bool",
          "name": "",
          "type": "bool"
        }
      ],
      "stateMutability": "view",
      "type": "function"
    },
    {
      "inputs": [],
      "name": "name",
      "outputs": [
        {
          "internalType": "string",
          "name": "",
          "type": "string"
        }
      ],
      "stateMutability": "view",
      "type": "function"
    },
    {
      "inputs": [
        {
          "internalType": "uint256",
          "name": "tokenId",
          "type": "uint256"
        }
      ],
      "name": "ownerOf",
      "outputs": [
        {
          "internalType": "address",
          "name": "",
          "type": "address"
        }
      ],
      "stateMutability": "view",
      "type": "function"
    },
    {
      "inputs": [
        {
          "internalType": "address",
          "name": "to",
          "type": "address"
        },
        {
          "internalType": "string",
          "name": "uri",
          "type": "string"
        }
      ],
      "name": "safeMint",
      "outputs": [
        {
          "internalType": "uint256",
          "name": "",
          "type": "uint256"
        }
      ],
      "stateMutability": "nonpayable",
      "type": "function"
    },
    {
      "inputs": [
        {
          "internalType": "address",
          "name": "from",
          "type": "address"
        },
        {
          "internalType": "address",
          "name": "to",
          "type": "address"
        },
        {
          "internalType": "uint256",
          "name": "tokenId",
          "type": "uint256"
        }
      ],
      "name": "safeTransferFrom",
      "outputs": [],
      "stateMutability": "nonpayable",
      "type": "function"
    },
    {
      "inputs": [
        {
          "internalType": "address",
          "name": "from",
          "type": "address"
        },
        {
          "internalType": "address",
          "name": "to",
          "type": "address"
        },
        {
          "internalType": "uint256",
          "name": "tokenId",
          "type": "uint256"
        },
        {
          "internalType": "bytes",
          "name": "data",
          "type": "bytes"
        }
      ],
      "name": "safeTransferFrom",
      "outputs": [],
      "stateMutability": "nonpayable",
      "type": "function"
    },
    {
      "inputs": [
        {
          "internalType": "address",
          "name": "operator",
          "type": "address"
        },
        {
          "internalType": "bool",
          "name": "approved",
          "type": "bool"
        }
      ],
      "name": "setApprovalForAll",
      "outputs": [],
      "stateMutability": "nonpayable",
      "type": "function"
    },
    {
      "inputs": [
        {
          "internalType": "uint256",
          "name": "tokenId",
          "type": "uint256"
        },
        {
          "internalType": "uint256",
          "name": "duration",
          "type": "uint256"
        }
      ],
      "name": "setDurationForTokenId",
      "outputs": [],
      "stateMutability": "nonpayable",
      "type": "function"
    },
    {
      "inputs": [
        {
          "internalType": "bytes4",
          "name": "interfaceId",
          "type": "bytes4"
        }
      ],
      "name": "supportsInterface",
      "outputs": [
        {
          "internalType": "bool",
          "name": "",
          "type": "bool"
        }
      ],
      "stateMutability": "view",
      "type": "function"
    },
    {
      "inputs": [],
      "name": "symbol",
      "outputs": [
        {
          "internalType": "string",
          "name": "",
          "type": "string"
        }
      ],
      "stateMutability": "view",
      "type": "function"
    },
    {
      "inputs": [
        {
          "internalType": "uint256",
          "name": "tokenId",
          "type": "uint256"
        }
      ],
      "name": "tokenURI",
      "outputs": [
        {
          "internalType": "string",
          "name": "",
          "type": "string"
        }
      ],
      "stateMutability": "view",
      "type": "function"
    },
    {
      "inputs": [
        {
          "internalType": "address",
          "name": "from",
          "type": "address"
        },
        {
          "internalType": "address",
          "name": "to",
          "type": "address"
        },
        {
          "internalType": "uint256",
          "name": "tokenId",
          "type": "uint256"
        }
      ],
      "name": "transferFrom",
      "outputs": [],
      "stateMutability": "nonpayable",
      "type": "function"
    }
  ],
  "transactionHash": "0xce662de3c8c64cfa2e6373462e7bab52ecdd0366d098a8ff66ba159cf8f6194c",
  "args": [
    "Tempro",
    "RET"
  ],
  "numDeployments": 2,
  "solcInputHash": "3d6b7cbdff4b49cf161a731b19acf532",
  "bytecode": "0x60806040526000600860006101000a81548173ffffffffffffffffffffffffffffffffffffffff021916908373ffffffffffffffffffffffffffffffffffffffff1602179055503480156200005357600080fd5b50604051620039a8380380620039a8833981810160405281019062000079919062000345565b8181816000908051906020019062000093929190620000f8565b508060019080519060200190620000ac929190620000f8565b50505033600860006101000a81548173ffffffffffffffffffffffffffffffffffffffff021916908373ffffffffffffffffffffffffffffffffffffffff16021790555050506200042f565b8280546200010690620003f9565b90600052602060002090601f0160209004810192826200012a576000855562000176565b82601f106200014557805160ff191683800117855562000176565b8280016001018555821562000176579182015b828111156200017557825182559160200191906001019062000158565b5b50905062000185919062000189565b5090565b5b80821115620001a45760008160009055506001016200018a565b5090565b6000604051905090565b600080fd5b600080fd5b600080fd5b600080fd5b6000601f19601f8301169050919050565b7f4e487b7100000000000000000000000000000000000000000000000000000000600052604160045260246000fd5b6200021182620001c6565b810181811067ffffffffffffffff82111715620002335762000232620001d7565b5b80604052505050565b600062000248620001a8565b905062000256828262000206565b919050565b600067ffffffffffffffff821115620002795762000278620001d7565b5b6200028482620001c6565b9050602081019050919050565b60005b83811015620002b157808201518184015260208101905062000294565b83811115620002c1576000848401525b50505050565b6000620002de620002d8846200025b565b6200023c565b905082815260208101848484011115620002fd57620002fc620001c1565b5b6200030a84828562000291565b509392505050565b600082601f8301126200032a5762000329620001bc565b5b81516200033c848260208601620002c7565b91505092915050565b600080604083850312156200035f576200035e620001b2565b5b600083015167ffffffffffffffff81111562000380576200037f620001b7565b5b6200038e8582860162000312565b925050602083015167ffffffffffffffff811115620003b257620003b1620001b7565b5b620003c08582860162000312565b9150509250929050565b7f4e487b7100000000000000000000000000000000000000000000000000000000600052602260045260246000fd5b600060028204905060018216806200041257607f821691505b60208210811415620004295762000428620003ca565b5b50919050565b613569806200043f6000396000f3fe608060405234801561001057600080fd5b50600436106101425760003560e01c806370a08231116100b8578063bc2be1be1161007c578063bc2be1be14610397578063c87b56dd146103c7578063ca49a543146103f7578063d204c45e14610415578063d93fdde914610445578063e985e9c51461046157610142565b806370a08231146102e15780639067b6771461031157806395d89b4114610341578063a22cb4651461035f578063b88d4fde1461037b57610142565b806323b872dd1161010a57806323b872dd1461021157806331af64181461022d57806333c734971461025d57806342842e0e1461027957806342966c68146102955780636352211e146102b157610142565b806301ffc9a71461014757806306fdde0314610177578063081812fc14610195578063095ea7b3146101c55780631b594e2e146101e1575b600080fd5b610161600480360381019061015c91906124a6565b610491565b60405161016e91906124ee565b60405180910390f35b61017f610573565b60405161018c91906125a2565b60405180910390f35b6101af60048036038101906101aa91906125fa565b610605565b6040516101bc9190612668565b60405180910390f35b6101df60048036038101906101da91906126af565b61064b565b005b6101fb60048036038101906101f691906126ef565b610763565b6040516102089190612668565b60405180910390f35b61022b6004803603810190610226919061272f565b61083c565b005b610247600480360381019061024291906125fa565b61089c565b6040516102549190612791565b60405180910390f35b610277600480360381019061027291906126ef565b61092c565b005b610293600480360381019061028e919061272f565b610b5d565b005b6102af60048036038101906102aa91906125fa565b610b7d565b005b6102cb60048036038101906102c691906125fa565b610bd9565b6040516102d89190612668565b60405180910390f35b6102fb60048036038101906102f691906127ac565b610c8b565b6040516103089190612791565b60405180910390f35b61032b600480360381019061032691906125fa565b610d43565b6040516103389190612791565b60405180910390f35b610349610d63565b60405161035691906125a2565b60405180910390f35b61037960048036038101906103749190612805565b610df5565b005b6103956004803603810190610390919061297a565b610e0b565b005b6103b160048036038101906103ac91906125fa565b610e6d565b6040516103be9190612791565b60405180910390f35b6103e160048036038101906103dc91906125fa565b610e8d565b6040516103ee91906125a2565b60405180910390f35b6103ff610e9f565b60405161040c9190612791565b60405180910390f35b61042f600480360381019061042a9190612a9e565b610ea7565b60405161043c9190612791565b60405180910390f35b61045f600480360381019061045a9190612afa565b610f68565b005b61047b60048036038101906104769190612b4d565b611274565b60405161048891906124ee565b60405180910390f35b60007f80ac58cd000000000000000000000000000000000000000000000000000000007bffffffffffffffffffffffffffffffffffffffffffffffffffffffff1916827bffffffffffffffffffffffffffffffffffffffffffffffffffffffff1916148061055c57507f5b5e139f000000000000000000000000000000000000000000000000000000007bffffffffffffffffffffffffffffffffffffffffffffffffffffffff1916827bffffffffffffffffffffffffffffffffffffffffffffffffffffffff1916145b8061056c575061056b82611308565b5b9050919050565b60606000805461058290612bbc565b80601f01602080910402602001604051908101604052809291908181526020018280546105ae90612bbc565b80156105fb5780601f106105d0576101008083540402835291602001916105fb565b820191906000526020600020905b8154815290600101906020018083116105de57829003601f168201915b5050505050905090565b600061061082611372565b6004600083815260200190815260200160002060009054906101000a900473ffffffffffffffffffffffffffffffffffffffff169050919050565b600061065682610bd9565b90508073ffffffffffffffffffffffffffffffffffffffff168373ffffffffffffffffffffffffffffffffffffffff1614156106c7576040517f08c379a00000000000000000000000000000000000000000000000000000000081526004016106be90612c60565b60405180910390fd5b8073ffffffffffffffffffffffffffffffffffffffff166106e66113bd565b73ffffffffffffffffffffffffffffffffffffffff16148061071557506107148161070f6113bd565b611274565b5b610754576040517f08c379a000000000000000000000000000000000000000000000000000000000815260040161074b90612cf2565b60405180910390fd5b61075e83836113c5565b505050565b600080600960008581526020019081526020016000206003018054806020026020016040519081016040528092919081815260200182805480156107fc57602002820191906000526020600020905b8160009054906101000a900473ffffffffffffffffffffffffffffffffffffffff1673ffffffffffffffffffffffffffffffffffffffff16815260200190600101908083116107b2575b50505050509050600081511115610830578083815181106108205761081f612d12565b5b6020026020010151915050610836565b60009150505b92915050565b61084d6108476113bd565b8261147e565b61088c576040517f08c379a000000000000000000000000000000000000000000000000000000000815260040161088390612db3565b60405180910390fd5b610897838383611513565b505050565b600081600060096000838152602001908152602001600020600201541461090d576009600082815260200190815260200160002060020154421061090c576040517f380050cd00000000000000000000000000000000000000000000000000000000815260040160405180910390fd5b5b6009600084815260200190815260200160002060000154915050919050565b81600060096000838152602001908152602001600020600201541461099b576009600082815260200190815260200160002060020154421061099a576040517f380050cd00000000000000000000000000000000000000000000000000000000815260040160405180910390fd5b5b33600860009054906101000a900473ffffffffffffffffffffffffffffffffffffffff1673ffffffffffffffffffffffffffffffffffffffff168173ffffffffffffffffffffffffffffffffffffffff1614610a23576040517ff10d62fc00000000000000000000000000000000000000000000000000000000815260040160405180910390fd5b60405180608001604052808481526020016000815260200160008152602001600067ffffffffffffffff811115610a5d57610a5c61284f565b5b604051908082528060200260200182016040528015610a8b5781602001602082028036833780820191505090505b50815250600960008681526020019081526020016000206000820151816000015560208201518160010155604082015181600201556060820151816003019080519060200190610adc9291906122cd565b5090505060096000858152602001908152602001600020600301339080600181540180825580915050600190039060005260206000200160009091909190916101000a81548173ffffffffffffffffffffffffffffffffffffffff021916908373ffffffffffffffffffffffffffffffffffffffff16021790555050505050565b610b7883838360405180602001604052806000815250610e0b565b505050565b610b8e610b886113bd565b8261147e565b610bcd576040517f08c379a0000000000000000000000000000000000000000000000000000000008152600401610bc490612db3565b60405180910390fd5b610bd68161177a565b50565b6000806002600084815260200190815260200160002060009054906101000a900473ffffffffffffffffffffffffffffffffffffffff169050600073ffffffffffffffffffffffffffffffffffffffff168173ffffffffffffffffffffffffffffffffffffffff161415610c82576040517f08c379a0000000000000000000000000000000000000000000000000000000008152600401610c7990612e1f565b60405180910390fd5b80915050919050565b60008073ffffffffffffffffffffffffffffffffffffffff168273ffffffffffffffffffffffffffffffffffffffff161415610cfc576040517f08c379a0000000000000000000000000000000000000000000000000000000008152600401610cf390612eb1565b60405180910390fd5b600360008373ffffffffffffffffffffffffffffffffffffffff1673ffffffffffffffffffffffffffffffffffffffff168152602001908152602001600020549050919050565b600060096000838152602001908152602001600020600201549050919050565b606060018054610d7290612bbc565b80601f0160208091040260200160405190810160405280929190818152602001828054610d9e90612bbc565b8015610deb5780601f10610dc057610100808354040283529160200191610deb565b820191906000526020600020905b815481529060010190602001808311610dce57829003601f168201915b5050505050905090565b610e07610e006113bd565b8383611786565b5050565b610e1c610e166113bd565b8361147e565b610e5b576040517f08c379a0000000000000000000000000000000000000000000000000000000008152600401610e5290612db3565b60405180910390fd5b610e67848484846118f3565b50505050565b600060096000838152602001908152602001600020600101549050919050565b6060610e988261194f565b9050919050565b600042905090565b600033600860009054906101000a900473ffffffffffffffffffffffffffffffffffffffff1673ffffffffffffffffffffffffffffffffffffffff168173ffffffffffffffffffffffffffffffffffffffff1614610f31576040517ff10d62fc00000000000000000000000000000000000000000000000000000000815260040160405180910390fd5b610f3b6007611a62565b6000610f476007611a78565b9050610f538185611a86565b610f5d8582611afa565b809250505092915050565b338160006009600083815260200190815260200160002060030180548060200260200160405190810160405280929190818152602001828054801561100257602002820191906000526020600020905b8160009054906101000a900473ffffffffffffffffffffffffffffffffffffffff1673ffffffffffffffffffffffffffffffffffffffff1681526020019060010190808311610fb8575b5050505050905060008151905060008260018361101f9190612f00565b815181106110305761102f612d12565b5b602002602001015190508073ffffffffffffffffffffffffffffffffffffffff168573ffffffffffffffffffffffffffffffffffffffff161461109f576040517f3337f25500000000000000000000000000000000000000000000000000000000815260040160405180910390fd5b85600060096000838152602001908152602001600020600201541461110e576009600082815260200190815260200160002060020154421061110d576040517f380050cd00000000000000000000000000000000000000000000000000000000815260040160405180910390fd5b5b88611145576040517f57cc96b500000000000000000000000000000000000000000000000000000000815260040160405180910390fd5b600060096000898152602001908152602001600020600101541415611180574260096000898152602001908152602001600020600101819055505b6000600960008981526020019081526020016000206002015414156111f257600960008881526020019081526020016000206000015460096000898152602001908152602001600020600101546111d79190612f34565b60096000898152602001908152602001600020600201819055505b60096000888152602001908152602001600020600301889080600181540180825580915050600190039060005260206000200160009091909190916101000a81548173ffffffffffffffffffffffffffffffffffffffff021916908373ffffffffffffffffffffffffffffffffffffffff160217905550505050505050505050565b6000600560008473ffffffffffffffffffffffffffffffffffffffff1673ffffffffffffffffffffffffffffffffffffffff16815260200190815260200160002060008373ffffffffffffffffffffffffffffffffffffffff1673ffffffffffffffffffffffffffffffffffffffff16815260200190815260200160002060009054906101000a900460ff16905092915050565b60007f01ffc9a7000000000000000000000000000000000000000000000000000000007bffffffffffffffffffffffffffffffffffffffffffffffffffffffff1916827bffffffffffffffffffffffffffffffffffffffffffffffffffffffff1916149050919050565b61137b81611b18565b6113ba576040517f08c379a00000000000000000000000000000000000000000000000000000000081526004016113b190612e1f565b60405180910390fd5b50565b600033905090565b816004600083815260200190815260200160002060006101000a81548173ffffffffffffffffffffffffffffffffffffffff021916908373ffffffffffffffffffffffffffffffffffffffff160217905550808273ffffffffffffffffffffffffffffffffffffffff1661143883610bd9565b73ffffffffffffffffffffffffffffffffffffffff167f8c5be1e5ebec7d5bd14f71427d1e84f3dd0314c0f7b2291e5b200ac8c7c3b92560405160405180910390a45050565b60008061148a83610bd9565b90508073ffffffffffffffffffffffffffffffffffffffff168473ffffffffffffffffffffffffffffffffffffffff1614806114cc57506114cb8185611274565b5b8061150a57508373ffffffffffffffffffffffffffffffffffffffff166114f284610605565b73ffffffffffffffffffffffffffffffffffffffff16145b91505092915050565b8273ffffffffffffffffffffffffffffffffffffffff1661153382610bd9565b73ffffffffffffffffffffffffffffffffffffffff1614611589576040517f08c379a000000000000000000000000000000000000000000000000000000000815260040161158090612ffc565b60405180910390fd5b600073ffffffffffffffffffffffffffffffffffffffff168273ffffffffffffffffffffffffffffffffffffffff1614156115f9576040517f08c379a00000000000000000000000000000000000000000000000000000000081526004016115f09061308e565b60405180910390fd5b611604838383611b84565b61160f6000826113c5565b6001600360008573ffffffffffffffffffffffffffffffffffffffff1673ffffffffffffffffffffffffffffffffffffffff168152602001908152602001600020600082825461165f9190612f00565b925050819055506001600360008473ffffffffffffffffffffffffffffffffffffffff1673ffffffffffffffffffffffffffffffffffffffff16815260200190815260200160002060008282546116b69190612f34565b92505081905550816002600083815260200190815260200160002060006101000a81548173ffffffffffffffffffffffffffffffffffffffff021916908373ffffffffffffffffffffffffffffffffffffffff160217905550808273ffffffffffffffffffffffffffffffffffffffff168473ffffffffffffffffffffffffffffffffffffffff167fddf252ad1be2c89b69c2b068fc378daa952ba7f163c4a11628f55a4df523b3ef60405160405180910390a4611775838383611b89565b505050565b61178381611b8e565b50565b8173ffffffffffffffffffffffffffffffffffffffff168373ffffffffffffffffffffffffffffffffffffffff1614156117f5576040517f08c379a00000000000000000000000000000000000000000000000000000000081526004016117ec906130fa565b60405180910390fd5b80600560008573ffffffffffffffffffffffffffffffffffffffff1673ffffffffffffffffffffffffffffffffffffffff16815260200190815260200160002060008473ffffffffffffffffffffffffffffffffffffffff1673ffffffffffffffffffffffffffffffffffffffff16815260200190815260200160002060006101000a81548160ff0219169083151502179055508173ffffffffffffffffffffffffffffffffffffffff168373ffffffffffffffffffffffffffffffffffffffff167f17307eab39ab6107e8899845ad3d59bd9653f200f220920489ca2b5937696c31836040516118e691906124ee565b60405180910390a3505050565b6118fe848484611513565b61190a84848484611be1565b611949576040517f08c379a00000000000000000000000000000000000000000000000000000000081526004016119409061318c565b60405180910390fd5b50505050565b606061195a82611372565b600060066000848152602001908152602001600020805461197a90612bbc565b80601f01602080910402602001604051908101604052809291908181526020018280546119a690612bbc565b80156119f35780601f106119c8576101008083540402835291602001916119f3565b820191906000526020600020905b8154815290600101906020018083116119d657829003601f168201915b505050505090506000611a04611d78565b9050600081511415611a1a578192505050611a5d565b600082511115611a4f578082604051602001611a379291906131e8565b60405160208183030381529060405292505050611a5d565b611a5884611d8f565b925050505b919050565b6001816000016000828254019250508190555050565b600081600001549050919050565b611a8f82611b18565b611ace576040517f08c379a0000000000000000000000000000000000000000000000000000000008152600401611ac59061327e565b60405180910390fd5b80600660008481526020019081526020016000209080519060200190611af5929190612357565b505050565b611b14828260405180602001604052806000815250611df7565b5050565b60008073ffffffffffffffffffffffffffffffffffffffff166002600084815260200190815260200160002060009054906101000a900473ffffffffffffffffffffffffffffffffffffffff1673ffffffffffffffffffffffffffffffffffffffff1614159050919050565b505050565b505050565b611b9781611e52565b6000600660008381526020019081526020016000208054611bb790612bbc565b905014611bde57600660008281526020019081526020016000206000611bdd91906123dd565b5b50565b6000611c028473ffffffffffffffffffffffffffffffffffffffff16611f6f565b15611d6b578373ffffffffffffffffffffffffffffffffffffffff1663150b7a02611c2b6113bd565b8786866040518563ffffffff1660e01b8152600401611c4d94939291906132f3565b602060405180830381600087803b158015611c6757600080fd5b505af1925050508015611c9857506040513d601f19601f82011682018060405250810190611c959190613354565b60015b611d1b573d8060008114611cc8576040519150601f19603f3d011682016040523d82523d6000602084013e611ccd565b606091505b50600081511415611d13576040517f08c379a0000000000000000000000000000000000000000000000000000000008152600401611d0a9061318c565b60405180910390fd5b805181602001fd5b63150b7a0260e01b7bffffffffffffffffffffffffffffffffffffffffffffffffffffffff1916817bffffffffffffffffffffffffffffffffffffffffffffffffffffffff191614915050611d70565b600190505b949350505050565b606060405180602001604052806000815250905090565b6060611d9a82611372565b6000611da4611d78565b90506000815111611dc45760405180602001604052806000815250611def565b80611dce84611f92565b604051602001611ddf9291906131e8565b6040516020818303038152906040525b915050919050565b611e0183836120f3565b611e0e6000848484611be1565b611e4d576040517f08c379a0000000000000000000000000000000000000000000000000000000008152600401611e449061318c565b60405180910390fd5b505050565b6000611e5d82610bd9565b9050611e6b81600084611b84565b611e766000836113c5565b6001600360008373ffffffffffffffffffffffffffffffffffffffff1673ffffffffffffffffffffffffffffffffffffffff1681526020019081526020016000206000828254611ec69190612f00565b925050819055506002600083815260200190815260200160002060006101000a81549073ffffffffffffffffffffffffffffffffffffffff021916905581600073ffffffffffffffffffffffffffffffffffffffff168273ffffffffffffffffffffffffffffffffffffffff167fddf252ad1be2c89b69c2b068fc378daa952ba7f163c4a11628f55a4df523b3ef60405160405180910390a4611f6b81600084611b89565b5050565b6000808273ffffffffffffffffffffffffffffffffffffffff163b119050919050565b60606000821415611fda576040518060400160405280600181526020017f300000000000000000000000000000000000000000000000000000000000000081525090506120ee565b600082905060005b6000821461200c578080611ff590613381565b915050600a8261200591906133f9565b9150611fe2565b60008167ffffffffffffffff8111156120285761202761284f565b5b6040519080825280601f01601f19166020018201604052801561205a5781602001600182028036833780820191505090505b5090505b600085146120e7576001826120739190612f00565b9150600a85612082919061342a565b603061208e9190612f34565b60f81b8183815181106120a4576120a3612d12565b5b60200101907effffffffffffffffffffffffffffffffffffffffffffffffffffffffffffff1916908160001a905350600a856120e091906133f9565b945061205e565b8093505050505b919050565b600073ffffffffffffffffffffffffffffffffffffffff168273ffffffffffffffffffffffffffffffffffffffff161415612163576040517f08c379a000000000000000000000000000000000000000000000000000000000815260040161215a906134a7565b60405180910390fd5b61216c81611b18565b156121ac576040517f08c379a00000000000000000000000000000000000000000000000000000000081526004016121a390613513565b60405180910390fd5b6121b860008383611b84565b6001600360008473ffffffffffffffffffffffffffffffffffffffff1673ffffffffffffffffffffffffffffffffffffffff16815260200190815260200160002060008282546122089190612f34565b92505081905550816002600083815260200190815260200160002060006101000a81548173ffffffffffffffffffffffffffffffffffffffff021916908373ffffffffffffffffffffffffffffffffffffffff160217905550808273ffffffffffffffffffffffffffffffffffffffff16600073ffffffffffffffffffffffffffffffffffffffff167fddf252ad1be2c89b69c2b068fc378daa952ba7f163c4a11628f55a4df523b3ef60405160405180910390a46122c960008383611b89565b5050565b828054828255906000526020600020908101928215612346579160200282015b828111156123455782518260006101000a81548173ffffffffffffffffffffffffffffffffffffffff021916908373ffffffffffffffffffffffffffffffffffffffff160217905550916020019190600101906122ed565b5b509050612353919061241d565b5090565b82805461236390612bbc565b90600052602060002090601f01602090048101928261238557600085556123cc565b82601f1061239e57805160ff19168380011785556123cc565b828001600101855582156123cc579182015b828111156123cb5782518255916020019190600101906123b0565b5b5090506123d9919061241d565b5090565b5080546123e990612bbc565b6000825580601f106123fb575061241a565b601f016020900490600052602060002090810190612419919061241d565b5b50565b5b8082111561243657600081600090555060010161241e565b5090565b6000604051905090565b600080fd5b600080fd5b60007fffffffff0000000000000000000000000000000000000000000000000000000082169050919050565b6124838161244e565b811461248e57600080fd5b50565b6000813590506124a08161247a565b92915050565b6000602082840312156124bc576124bb612444565b5b60006124ca84828501612491565b91505092915050565b60008115159050919050565b6124e8816124d3565b82525050565b600060208201905061250360008301846124df565b92915050565b600081519050919050565b600082825260208201905092915050565b60005b83811015612543578082015181840152602081019050612528565b83811115612552576000848401525b50505050565b6000601f19601f8301169050919050565b600061257482612509565b61257e8185612514565b935061258e818560208601612525565b61259781612558565b840191505092915050565b600060208201905081810360008301526125bc8184612569565b905092915050565b6000819050919050565b6125d7816125c4565b81146125e257600080fd5b50565b6000813590506125f4816125ce565b92915050565b6000602082840312156126105761260f612444565b5b600061261e848285016125e5565b91505092915050565b600073ffffffffffffffffffffffffffffffffffffffff82169050919050565b600061265282612627565b9050919050565b61266281612647565b82525050565b600060208201905061267d6000830184612659565b92915050565b61268c81612647565b811461269757600080fd5b50565b6000813590506126a981612683565b92915050565b600080604083850312156126c6576126c5612444565b5b60006126d48582860161269a565b92505060206126e5858286016125e5565b9150509250929050565b6000806040838503121561270657612705612444565b5b6000612714858286016125e5565b9250506020612725858286016125e5565b9150509250929050565b60008060006060848603121561274857612747612444565b5b60006127568682870161269a565b93505060206127678682870161269a565b9250506040612778868287016125e5565b9150509250925092565b61278b816125c4565b82525050565b60006020820190506127a66000830184612782565b92915050565b6000602082840312156127c2576127c1612444565b5b60006127d08482850161269a565b91505092915050565b6127e2816124d3565b81146127ed57600080fd5b50565b6000813590506127ff816127d9565b92915050565b6000806040838503121561281c5761281b612444565b5b600061282a8582860161269a565b925050602061283b858286016127f0565b9150509250929050565b600080fd5b600080fd5b7f4e487b7100000000000000000000000000000000000000000000000000000000600052604160045260246000fd5b61288782612558565b810181811067ffffffffffffffff821117156128a6576128a561284f565b5b80604052505050565b60006128b961243a565b90506128c5828261287e565b919050565b600067ffffffffffffffff8211156128e5576128e461284f565b5b6128ee82612558565b9050602081019050919050565b82818337600083830152505050565b600061291d612918846128ca565b6128af565b9050828152602081018484840111156129395761293861284a565b5b6129448482856128fb565b509392505050565b600082601f83011261296157612960612845565b5b813561297184826020860161290a565b91505092915050565b6000806000806080858703121561299457612993612444565b5b60006129a28782880161269a565b94505060206129b38782880161269a565b93505060406129c4878288016125e5565b925050606085013567ffffffffffffffff8111156129e5576129e4612449565b5b6129f18782880161294c565b91505092959194509250565b600067ffffffffffffffff821115612a1857612a1761284f565b5b612a2182612558565b9050602081019050919050565b6000612a41612a3c846129fd565b6128af565b905082815260208101848484011115612a5d57612a5c61284a565b5b612a688482856128fb565b509392505050565b600082601f830112612a8557612a84612845565b5b8135612a95848260208601612a2e565b91505092915050565b60008060408385031215612ab557612ab4612444565b5b6000612ac38582860161269a565b925050602083013567ffffffffffffffff811115612ae457612ae3612449565b5b612af085828601612a70565b9150509250929050565b600080600060608486031215612b1357612b12612444565b5b6000612b21868287016127f0565b9350506020612b328682870161269a565b9250506040612b43868287016125e5565b9150509250925092565b60008060408385031215612b6457612b63612444565b5b6000612b728582860161269a565b9250506020612b838582860161269a565b9150509250929050565b7f4e487b7100000000000000000000000000000000000000000000000000000000600052602260045260246000fd5b60006002820490506001821680612bd457607f821691505b60208210811415612be857612be7612b8d565b5b50919050565b7f4552433732313a20617070726f76616c20746f2063757272656e74206f776e6560008201527f7200000000000000000000000000000000000000000000000000000000000000602082015250565b6000612c4a602183612514565b9150612c5582612bee565b604082019050919050565b60006020820190508181036000830152612c7981612c3d565b9050919050565b7f4552433732313a20617070726f76652063616c6c6572206973206e6f7420746f60008201527f6b656e206f776e6572206e6f7220617070726f76656420666f7220616c6c0000602082015250565b6000612cdc603e83612514565b9150612ce782612c80565b604082019050919050565b60006020820190508181036000830152612d0b81612ccf565b9050919050565b7f4e487b7100000000000000000000000000000000000000000000000000000000600052603260045260246000fd5b7f4552433732313a2063616c6c6572206973206e6f7420746f6b656e206f776e6560008201527f72206e6f7220617070726f766564000000000000000000000000000000000000602082015250565b6000612d9d602e83612514565b9150612da882612d41565b604082019050919050565b60006020820190508181036000830152612dcc81612d90565b9050919050565b7f4552433732313a20696e76616c696420746f6b656e2049440000000000000000600082015250565b6000612e09601883612514565b9150612e1482612dd3565b602082019050919050565b60006020820190508181036000830152612e3881612dfc565b9050919050565b7f4552433732313a2061646472657373207a65726f206973206e6f74206120766160008201527f6c6964206f776e65720000000000000000000000000000000000000000000000602082015250565b6000612e9b602983612514565b9150612ea682612e3f565b604082019050919050565b60006020820190508181036000830152612eca81612e8e565b9050919050565b7f4e487b7100000000000000000000000000000000000000000000000000000000600052601160045260246000fd5b6000612f0b826125c4565b9150612f16836125c4565b925082821015612f2957612f28612ed1565b5b828203905092915050565b6000612f3f826125c4565b9150612f4a836125c4565b9250827fffffffffffffffffffffffffffffffffffffffffffffffffffffffffffffffff03821115612f7f57612f7e612ed1565b5b828201905092915050565b7f4552433732313a207472616e736665722066726f6d20696e636f72726563742060008201527f6f776e6572000000000000000000000000000000000000000000000000000000602082015250565b6000612fe6602583612514565b9150612ff182612f8a565b604082019050919050565b6000602082019050818103600083015261301581612fd9565b9050919050565b7f4552433732313a207472616e7366657220746f20746865207a65726f2061646460008201527f7265737300000000000000000000000000000000000000000000000000000000602082015250565b6000613078602483612514565b91506130838261301c565b604082019050919050565b600060208201905081810360008301526130a78161306b565b9050919050565b7f4552433732313a20617070726f766520746f2063616c6c657200000000000000600082015250565b60006130e4601983612514565b91506130ef826130ae565b602082019050919050565b60006020820190508181036000830152613113816130d7565b9050919050565b7f4552433732313a207472616e7366657220746f206e6f6e20455243373231526560008201527f63656976657220696d706c656d656e7465720000000000000000000000000000602082015250565b6000613176603283612514565b91506131818261311a565b604082019050919050565b600060208201905081810360008301526131a581613169565b9050919050565b600081905092915050565b60006131c282612509565b6131cc81856131ac565b93506131dc818560208601612525565b80840191505092915050565b60006131f482856131b7565b915061320082846131b7565b91508190509392505050565b7f45524337323155524953746f726167653a2055524920736574206f66206e6f6e60008201527f6578697374656e7420746f6b656e000000000000000000000000000000000000602082015250565b6000613268602e83612514565b91506132738261320c565b604082019050919050565b600060208201905081810360008301526132978161325b565b9050919050565b600081519050919050565b600082825260208201905092915050565b60006132c58261329e565b6132cf81856132a9565b93506132df818560208601612525565b6132e881612558565b840191505092915050565b60006080820190506133086000830187612659565b6133156020830186612659565b6133226040830185612782565b818103606083015261333481846132ba565b905095945050505050565b60008151905061334e8161247a565b92915050565b60006020828403121561336a57613369612444565b5b60006133788482850161333f565b91505092915050565b600061338c826125c4565b91507fffffffffffffffffffffffffffffffffffffffffffffffffffffffffffffffff8214156133bf576133be612ed1565b5b600182019050919050565b7f4e487b7100000000000000000000000000000000000000000000000000000000600052601260045260246000fd5b6000613404826125c4565b915061340f836125c4565b92508261341f5761341e6133ca565b5b828204905092915050565b6000613435826125c4565b9150613440836125c4565b9250826134505761344f6133ca565b5b828206905092915050565b7f4552433732313a206d696e7420746f20746865207a65726f2061646472657373600082015250565b6000613491602083612514565b915061349c8261345b565b602082019050919050565b600060208201905081810360008301526134c081613484565b9050919050565b7f4552433732313a20746f6b656e20616c7265616479206d696e74656400000000600082015250565b60006134fd601c83612514565b9150613508826134c7565b602082019050919050565b6000602082019050818103600083015261352c816134f0565b905091905056fea264697066735822122009e17032c209b1cebf8d89803c30cf10d8f15a8d5247e1f12ae82f5ff7433c7364736f6c63430008090033",
  "devdoc": {
    "kind": "dev",
    "methods": {
      "approve(address,uint256)": {
        "details": "See {IERC721-approve}."
      },
      "balanceOf(address)": {
        "details": "See {IERC721-balanceOf}."
      },
      "burn(uint256)": {
        "details": "Burns `tokenId`. See {ERC721-_burn}. Requirements: - The caller must own `tokenId` or be an approved operator."
      },
      "getApproved(uint256)": {
        "details": "See {IERC721-getApproved}."
      },
      "isApprovedForAll(address,address)": {
        "details": "See {IERC721-isApprovedForAll}."
      },
      "name()": {
        "details": "See {IERC721Metadata-name}."
      },
      "ownerOf(uint256)": {
        "details": "See {IERC721-ownerOf}."
      },
      "safeTransferFrom(address,address,uint256)": {
        "details": "See {IERC721-safeTransferFrom}."
      },
      "safeTransferFrom(address,address,uint256,bytes)": {
        "details": "See {IERC721-safeTransferFrom}."
      },
      "setApprovalForAll(address,bool)": {
        "details": "See {IERC721-setApprovalForAll}."
      },
      "supportsInterface(bytes4)": {
        "details": "See {IERC165-supportsInterface}."
      },
      "symbol()": {
        "details": "See {IERC721Metadata-symbol}."
      },
      "transferFrom(address,address,uint256)": {
        "details": "See {IERC721-transferFrom}."
      }
    },
    "version": 1
  },
  "userdoc": {
    "kind": "user",
    "methods": {},
    "version": 1
  },
  "storageLayout": {
    "storage": [
      {
        "astId": 117,
        "contract": "contracts/WarrantyCardNFT.sol:WarrantyCardStorage",
        "label": "_name",
        "offset": 0,
        "slot": "0",
        "type": "t_string_storage"
      },
      {
        "astId": 119,
        "contract": "contracts/WarrantyCardNFT.sol:WarrantyCardStorage",
        "label": "_symbol",
        "offset": 0,
        "slot": "1",
        "type": "t_string_storage"
      },
      {
        "astId": 123,
        "contract": "contracts/WarrantyCardNFT.sol:WarrantyCardStorage",
        "label": "_owners",
        "offset": 0,
        "slot": "2",
        "type": "t_mapping(t_uint256,t_address)"
      },
      {
        "astId": 127,
        "contract": "contracts/WarrantyCardNFT.sol:WarrantyCardStorage",
        "label": "_balances",
        "offset": 0,
        "slot": "3",
        "type": "t_mapping(t_address,t_uint256)"
      },
      {
        "astId": 131,
        "contract": "contracts/WarrantyCardNFT.sol:WarrantyCardStorage",
        "label": "_tokenApprovals",
        "offset": 0,
        "slot": "4",
        "type": "t_mapping(t_uint256,t_address)"
      },
      {
        "astId": 137,
        "contract": "contracts/WarrantyCardNFT.sol:WarrantyCardStorage",
        "label": "_operatorApprovals",
        "offset": 0,
        "slot": "5",
        "type": "t_mapping(t_address,t_mapping(t_address,t_bool))"
      },
      {
        "astId": 1135,
        "contract": "contracts/WarrantyCardNFT.sol:WarrantyCardStorage",
        "label": "_tokenURIs",
        "offset": 0,
        "slot": "6",
        "type": "t_mapping(t_uint256,t_string_storage)"
      },
      {
        "astId": 1954,
        "contract": "contracts/WarrantyCardNFT.sol:WarrantyCardStorage",
        "label": "_tokenIdCounter",
        "offset": 0,
        "slot": "7",
        "type": "t_struct(Counter)1597_storage"
      },
      {
        "astId": 1973,
        "contract": "contracts/WarrantyCardNFT.sol:WarrantyCardStorage",
        "label": "i_nftCreator",
        "offset": 0,
        "slot": "8",
        "type": "t_address_payable"
      },
      {
        "astId": 1978,
        "contract": "contracts/WarrantyCardNFT.sol:WarrantyCardStorage",
        "label": "tokenIdToNFTInfo",
        "offset": 0,
        "slot": "9",
        "type": "t_mapping(t_uint256,t_struct(nftInfo)1964_storage)"
      }
    ],
    "types": {
      "t_address": {
        "encoding": "inplace",
        "label": "address",
        "numberOfBytes": "20"
      },
      "t_address_payable": {
        "encoding": "inplace",
        "label": "address payable",
        "numberOfBytes": "20"
      },
      "t_array(t_address)dyn_storage": {
        "base": "t_address",
        "encoding": "dynamic_array",
        "label": "address[]",
        "numberOfBytes": "32"
      },
      "t_bool": {
        "encoding": "inplace",
        "label": "bool",
        "numberOfBytes": "1"
      },
      "t_mapping(t_address,t_bool)": {
        "encoding": "mapping",
        "key": "t_address",
        "label": "mapping(address => bool)",
        "numberOfBytes": "32",
        "value": "t_bool"
      },
      "t_mapping(t_address,t_mapping(t_address,t_bool))": {
        "encoding": "mapping",
        "key": "t_address",
        "label": "mapping(address => mapping(address => bool))",
        "numberOfBytes": "32",
        "value": "t_mapping(t_address,t_bool)"
      },
      "t_mapping(t_address,t_uint256)": {
        "encoding": "mapping",
        "key": "t_address",
        "label": "mapping(address => uint256)",
        "numberOfBytes": "32",
        "value": "t_uint256"
      },
      "t_mapping(t_uint256,t_address)": {
        "encoding": "mapping",
        "key": "t_uint256",
        "label": "mapping(uint256 => address)",
        "numberOfBytes": "32",
        "value": "t_address"
      },
      "t_mapping(t_uint256,t_string_storage)": {
        "encoding": "mapping",
        "key": "t_uint256",
        "label": "mapping(uint256 => string)",
        "numberOfBytes": "32",
        "value": "t_string_storage"
      },
      "t_mapping(t_uint256,t_struct(nftInfo)1964_storage)": {
        "encoding": "mapping",
        "key": "t_uint256",
        "label": "mapping(uint256 => struct WarrantyCardStorage.nftInfo)",
        "numberOfBytes": "32",
        "value": "t_struct(nftInfo)1964_storage"
      },
      "t_string_storage": {
        "encoding": "bytes",
        "label": "string",
        "numberOfBytes": "32"
      },
      "t_struct(Counter)1597_storage": {
        "encoding": "inplace",
        "label": "struct Counters.Counter",
        "members": [
          {
            "astId": 1596,
            "contract": "contracts/WarrantyCardNFT.sol:WarrantyCardStorage",
            "label": "_value",
            "offset": 0,
            "slot": "0",
            "type": "t_uint256"
          }
        ],
        "numberOfBytes": "32"
      },
      "t_struct(nftInfo)1964_storage": {
        "encoding": "inplace",
        "label": "struct WarrantyCardStorage.nftInfo",
        "members": [
          {
            "astId": 1956,
            "contract": "contracts/WarrantyCardNFT.sol:WarrantyCardStorage",
            "label": "duration",
            "offset": 0,
            "slot": "0",
            "type": "t_uint256"
          },
          {
            "astId": 1958,
            "contract": "contracts/WarrantyCardNFT.sol:WarrantyCardStorage",
            "label": "startTime",
            "offset": 0,
            "slot": "1",
            "type": "t_uint256"
          },
          {
            "astId": 1960,
            "contract": "contracts/WarrantyCardNFT.sol:WarrantyCardStorage",
            "label": "endTime",
            "offset": 0,
            "slot": "2",
            "type": "t_uint256"
          },
          {
            "astId": 1963,
            "contract": "contracts/WarrantyCardNFT.sol:WarrantyCardStorage",
            "label": "owners",
            "offset": 0,
            "slot": "3",
            "type": "t_array(t_address)dyn_storage"
          }
        ],
        "numberOfBytes": "128"
      },
      "t_uint256": {
        "encoding": "inplace",
        "label": "uint256",
        "numberOfBytes": "32"
      }
    }
  }
}