{
  "address": "0xc7e886c33eb26501c966eaf35db7bb15dd46b45d",
  "abi": [
    {
      "inputs": [
        {
          "internalType": "string",
          "name": "nftName",
          "type": "string"
        },
        {
          "internalType": "string",
          "name": "nftShortHand",
          "type": "string"
        }
      ],
      "stateMutability": "nonpayable",
      "type": "constructor"
    },
    {
      "inputs": [],
      "name": "Product_Creator_Unidentified",
      "type": "error"
    },
    {
      "inputs": [],
      "name": "Product_Not_Purchased",
      "type": "error"
    },
    {
      "inputs": [],
      "name": "Product_Owner_Unidentified",
      "type": "error"
    },
    {
      "inputs": [],
      "name": "Product_WarrantyPeriod_Over",
      "type": "error"
    },
    {
      "anonymous": false,
      "inputs": [
        {
          "indexed": true,
          "internalType": "address",
          "name": "owner",
          "type": "address"
        },
        {
          "indexed": true,
          "internalType": "address",
          "name": "approved",
          "type": "address"
        },
        {
          "indexed": true,
          "internalType": "uint256",
          "name": "tokenId",
          "type": "uint256"
        }
      ],
      "name": "Approval",
      "type": "event"
    },
    {
      "anonymous": false,
      "inputs": [
        {
          "indexed": true,
          "internalType": "address",
          "name": "owner",
          "type": "address"
        },
        {
          "indexed": true,
          "internalType": "address",
          "name": "operator",
          "type": "address"
        },
        {
          "indexed": false,
          "internalType": "bool",
          "name": "approved",
          "type": "bool"
        }
      ],
      "name": "ApprovalForAll",
      "type": "event"
    },
    {
      "anonymous": false,
      "inputs": [
        {
          "indexed": true,
          "internalType": "address",
          "name": "from",
          "type": "address"
        },
        {
          "indexed": true,
          "internalType": "address",
          "name": "to",
          "type": "address"
        },
        {
          "indexed": true,
          "internalType": "uint256",
          "name": "tokenId",
          "type": "uint256"
        }
      ],
      "name": "Transfer",
      "type": "event"
    },
    {
      "inputs": [
        {
          "internalType": "address",
          "name": "to",
          "type": "address"
        },
        {
          "internalType": "uint256",
          "name": "tokenId",
          "type": "uint256"
        }
      ],
      "name": "approve",
      "outputs": [],
      "stateMutability": "nonpayable",
      "type": "function"
    },
    {
      "inputs": [
        {
          "internalType": "address",
          "name": "owner",
          "type": "address"
        }
      ],
      "name": "balanceOf",
      "outputs": [
        {
          "internalType": "uint256",
          "name": "",
          "type": "uint256"
        }
      ],
      "stateMutability": "view",
      "type": "function"
    },
    {
      "inputs": [
        {
          "internalType": "uint256",
          "name": "tokenId",
          "type": "uint256"
        }
      ],
      "name": "burn",
      "outputs": [],
      "stateMutability": "nonpayable",
      "type": "function"
    },
    {
      "inputs": [
        {
          "internalType": "bool",
          "name": "hasPurchased",
          "type": "bool"
        },
        {
          "internalType": "address",
          "name": "newOwner",
          "type": "address"
        },
        {
          "internalType": "uint256",
          "name": "tokenId",
          "type": "uint256"
        }
      ],
      "name": "changeCurrentOwner",
      "outputs": [],
      "stateMutability": "nonpayable",
      "type": "function"
    },
    {
      "inputs": [
        {
          "internalType": "uint256",
          "name": "tokenId",
          "type": "uint256"
        }
      ],
      "name": "getApproved",
      "outputs": [
        {
          "internalType": "address",
          "name": "",
          "type": "address"
        }
      ],
      "stateMutability": "view",
      "type": "function"
    },
    {
      "inputs": [],
      "name": "getBlockTimeStamp",
      "outputs": [
        {
          "internalType": "uint256",
          "name": "",
          "type": "uint256"
        }
      ],
      "stateMutability": "view",
      "type": "function"
    },
    {
      "inputs": [
        {
          "internalType": "uint256",
          "name": "tokenId",
          "type": "uint256"
        }
      ],
      "name": "getCurrentWarrantyDuration",
      "outputs": [
        {
          "internalType": "uint256",
          "name": "",
          "type": "uint256"
        }
      ],
      "stateMutability": "view",
      "type": "function"
    },
    {
      "inputs": [
        {
          "internalType": "uint256",
          "name": "tokenId",
          "type": "uint256"
        }
      ],
      "name": "getEndTime",
      "outputs": [
        {
          "internalType": "uint256",
          "name": "",
          "type": "uint256"
        }
      ],
      "stateMutability": "view",
      "type": "function"
    },
    {
      "inputs": [
        {
          "internalType": "uint256",
          "name": "tokenId",
          "type": "uint256"
        },
        {
          "internalType": "uint256",
          "name": "index",
          "type": "uint256"
        }
      ],
      "name": "getPreviousOwner",
      "outputs": [
        {
          "internalType": "address",
          "name": "",
          "type": "address"
        }
      ],
      "stateMutability": "view",
      "type": "function"
    },
    {
      "inputs": [
        {
          "internalType": "uint256",
          "name": "tokenId",
          "type": "uint256"
        }
      ],
      "name": "getStartTime",
      "outputs": [
        {
          "internalType": "uint256",
          "name": "",
          "type": "uint256"
        }
      ],
      "stateMutability": "view",
      "type": "function"
    },
    {
      "inputs": [
        {
          "internalType": "address",
          "name": "owner",
          "type": "address"
        },
        {
          "internalType": "address",
          "name": "operator",
          "type": "address"
        }
      ],
      "name": "isApprovedForAll",
      "outputs": [
        {
          "internalType": "bool",
          "name": "",
          "type": "bool"
        }
      ],
      "stateMutability": "view",
      "type": "function"
    },
    {
      "inputs": [],
      "name": "name",
      "outputs": [
        {
          "internalType": "string",
          "name": "",
          "type": "string"
        }
      ],
      "stateMutability": "view",
      "type": "function"
    },
    {
      "inputs": [
        {
          "internalType": "uint256",
          "name": "tokenId",
          "type": "uint256"
        }
      ],
      "name": "ownerOf",
      "outputs": [
        {
          "internalType": "address",
          "name": "",
          "type": "address"
        }
      ],
      "stateMutability": "view",
      "type": "function"
    },
    {
      "inputs": [
        {
          "internalType": "address",
          "name": "to",
          "type": "address"
        },
        {
          "internalType": "string",
          "name": "uri",
          "type": "string"
        }
      ],
      "name": "safeMint",
      "outputs": [],
      "stateMutability": "nonpayable",
      "type": "function"
    },
    {
      "inputs": [
        {
          "internalType": "address",
          "name": "from",
          "type": "address"
        },
        {
          "internalType": "address",
          "name": "to",
          "type": "address"
        },
        {
          "internalType": "uint256",
          "name": "tokenId",
          "type": "uint256"
        }
      ],
      "name": "safeTransferFrom",
      "outputs": [],
      "stateMutability": "nonpayable",
      "type": "function"
    },
    {
      "inputs": [
        {
          "internalType": "address",
          "name": "from",
          "type": "address"
        },
        {
          "internalType": "address",
          "name": "to",
          "type": "address"
        },
        {
          "internalType": "uint256",
          "name": "tokenId",
          "type": "uint256"
        },
        {
          "internalType": "bytes",
          "name": "data",
          "type": "bytes"
        }
      ],
      "name": "safeTransferFrom",
      "outputs": [],
      "stateMutability": "nonpayable",
      "type": "function"
    },
    {
      "inputs": [
        {
          "internalType": "address",
          "name": "operator",
          "type": "address"
        },
        {
          "internalType": "bool",
          "name": "approved",
          "type": "bool"
        }
      ],
      "name": "setApprovalForAll",
      "outputs": [],
      "stateMutability": "nonpayable",
      "type": "function"
    },
    {
      "inputs": [
        {
          "internalType": "uint256",
          "name": "tokenId",
          "type": "uint256"
        },
        {
          "internalType": "uint256",
          "name": "duration",
          "type": "uint256"
        }
      ],
      "name": "setDurationForTokenId",
      "outputs": [],
      "stateMutability": "nonpayable",
      "type": "function"
    },
    {
      "inputs": [
        {
          "internalType": "bytes4",
          "name": "interfaceId",
          "type": "bytes4"
        }
      ],
      "name": "supportsInterface",
      "outputs": [
        {
          "internalType": "bool",
          "name": "",
          "type": "bool"
        }
      ],
      "stateMutability": "view",
      "type": "function"
    },
    {
      "inputs": [],
      "name": "symbol",
      "outputs": [
        {
          "internalType": "string",
          "name": "",
          "type": "string"
        }
      ],
      "stateMutability": "view",
      "type": "function"
    },
    {
      "inputs": [
        {
          "internalType": "uint256",
          "name": "tokenId",
          "type": "uint256"
        }
      ],
      "name": "tokenURI",
      "outputs": [
        {
          "internalType": "string",
          "name": "",
          "type": "string"
        }
      ],
      "stateMutability": "view",
      "type": "function"
    },
    {
      "inputs": [
        {
          "internalType": "address",
          "name": "from",
          "type": "address"
        },
        {
          "internalType": "address",
          "name": "to",
          "type": "address"
        },
        {
          "internalType": "uint256",
          "name": "tokenId",
          "type": "uint256"
        }
      ],
      "name": "transferFrom",
      "outputs": [],
      "stateMutability": "nonpayable",
      "type": "function"
    }
  ],
  "transactionHash": "0xc6069d8815c624ea529dc625a08c99450b560a46c5e2b37e98e350245f3e54d3",
  "args": [
    "Tempro",
    "RET"
  ],
  "numDeployments": 1,
  "solcInputHash": "c8695b850df315eac1a977094ab18246",
  "bytecode": "0x60806040526000600860006101000a81548173ffffffffffffffffffffffffffffffffffffffff021916908373ffffffffffffffffffffffffffffffffffffffff1602179055503480156200005357600080fd5b506040516200398d3803806200398d833981810160405281019062000079919062000345565b8181816000908051906020019062000093929190620000f8565b508060019080519060200190620000ac929190620000f8565b50505033600860006101000a81548173ffffffffffffffffffffffffffffffffffffffff021916908373ffffffffffffffffffffffffffffffffffffffff16021790555050506200042f565b8280546200010690620003f9565b90600052602060002090601f0160209004810192826200012a576000855562000176565b82601f106200014557805160ff191683800117855562000176565b8280016001018555821562000176579182015b828111156200017557825182559160200191906001019062000158565b5b50905062000185919062000189565b5090565b5b80821115620001a45760008160009055506001016200018a565b5090565b6000604051905090565b600080fd5b600080fd5b600080fd5b600080fd5b6000601f19601f8301169050919050565b7f4e487b7100000000000000000000000000000000000000000000000000000000600052604160045260246000fd5b6200021182620001c6565b810181811067ffffffffffffffff82111715620002335762000232620001d7565b5b80604052505050565b600062000248620001a8565b905062000256828262000206565b919050565b600067ffffffffffffffff821115620002795762000278620001d7565b5b6200028482620001c6565b9050602081019050919050565b60005b83811015620002b157808201518184015260208101905062000294565b83811115620002c1576000848401525b50505050565b6000620002de620002d8846200025b565b6200023c565b905082815260208101848484011115620002fd57620002fc620001c1565b5b6200030a84828562000291565b509392505050565b600082601f8301126200032a5762000329620001bc565b5b81516200033c848260208601620002c7565b91505092915050565b600080604083850312156200035f576200035e620001b2565b5b600083015167ffffffffffffffff81111562000380576200037f620001b7565b5b6200038e8582860162000312565b925050602083015167ffffffffffffffff811115620003b257620003b1620001b7565b5b620003c08582860162000312565b9150509250929050565b7f4e487b7100000000000000000000000000000000000000000000000000000000600052602260045260246000fd5b600060028204905060018216806200041257607f821691505b60208210811415620004295762000428620003ca565b5b50919050565b61354e806200043f6000396000f3fe608060405234801561001057600080fd5b50600436106101425760003560e01c806370a08231116100b8578063bc2be1be1161007c578063bc2be1be14610397578063c87b56dd146103c7578063ca49a543146103f7578063d204c45e14610415578063d93fdde914610431578063e985e9c51461044d57610142565b806370a08231146102e15780639067b6771461031157806395d89b4114610341578063a22cb4651461035f578063b88d4fde1461037b57610142565b806323b872dd1161010a57806323b872dd1461021157806331af64181461022d57806333c734971461025d57806342842e0e1461027957806342966c68146102955780636352211e146102b157610142565b806301ffc9a71461014757806306fdde0314610177578063081812fc14610195578063095ea7b3146101c55780631b594e2e146101e1575b600080fd5b610161600480360381019061015c919061248b565b61047d565b60405161016e91906124d3565b60405180910390f35b61017f61055f565b60405161018c9190612587565b60405180910390f35b6101af60048036038101906101aa91906125df565b6105f1565b6040516101bc919061264d565b60405180910390f35b6101df60048036038101906101da9190612694565b610637565b005b6101fb60048036038101906101f691906126d4565b61074f565b604051610208919061264d565b60405180910390f35b61022b60048036038101906102269190612714565b610828565b005b610247600480360381019061024291906125df565b610888565b6040516102549190612776565b60405180910390f35b610277600480360381019061027291906126d4565b610918565b005b610293600480360381019061028e9190612714565b610b49565b005b6102af60048036038101906102aa91906125df565b610b69565b005b6102cb60048036038101906102c691906125df565b610bc5565b6040516102d8919061264d565b60405180910390f35b6102fb60048036038101906102f69190612791565b610c77565b6040516103089190612776565b60405180910390f35b61032b600480360381019061032691906125df565b610d2f565b6040516103389190612776565b60405180910390f35b610349610d4f565b6040516103569190612587565b60405180910390f35b610379600480360381019061037491906127ea565b610de1565b005b6103956004803603810190610390919061295f565b610df7565b005b6103b160048036038101906103ac91906125df565b610e59565b6040516103be9190612776565b60405180910390f35b6103e160048036038101906103dc91906125df565b610e79565b6040516103ee9190612587565b60405180910390f35b6103ff610e8b565b60405161040c9190612776565b60405180910390f35b61042f600480360381019061042a9190612a83565b610e93565b005b61044b60048036038101906104469190612adf565b610f4d565b005b61046760048036038101906104629190612b32565b611259565b60405161047491906124d3565b60405180910390f35b60007f80ac58cd000000000000000000000000000000000000000000000000000000007bffffffffffffffffffffffffffffffffffffffffffffffffffffffff1916827bffffffffffffffffffffffffffffffffffffffffffffffffffffffff1916148061054857507f5b5e139f000000000000000000000000000000000000000000000000000000007bffffffffffffffffffffffffffffffffffffffffffffffffffffffff1916827bffffffffffffffffffffffffffffffffffffffffffffffffffffffff1916145b806105585750610557826112ed565b5b9050919050565b60606000805461056e90612ba1565b80601f016020809104026020016040519081016040528092919081815260200182805461059a90612ba1565b80156105e75780601f106105bc576101008083540402835291602001916105e7565b820191906000526020600020905b8154815290600101906020018083116105ca57829003601f168201915b5050505050905090565b60006105fc82611357565b6004600083815260200190815260200160002060009054906101000a900473ffffffffffffffffffffffffffffffffffffffff169050919050565b600061064282610bc5565b90508073ffffffffffffffffffffffffffffffffffffffff168373ffffffffffffffffffffffffffffffffffffffff1614156106b3576040517f08c379a00000000000000000000000000000000000000000000000000000000081526004016106aa90612c45565b60405180910390fd5b8073ffffffffffffffffffffffffffffffffffffffff166106d26113a2565b73ffffffffffffffffffffffffffffffffffffffff1614806107015750610700816106fb6113a2565b611259565b5b610740576040517f08c379a000000000000000000000000000000000000000000000000000000000815260040161073790612cd7565b60405180910390fd5b61074a83836113aa565b505050565b600080600960008581526020019081526020016000206003018054806020026020016040519081016040528092919081815260200182805480156107e857602002820191906000526020600020905b8160009054906101000a900473ffffffffffffffffffffffffffffffffffffffff1673ffffffffffffffffffffffffffffffffffffffff168152602001906001019080831161079e575b5050505050905060008151111561081c5780838151811061080c5761080b612cf7565b5b6020026020010151915050610822565b60009150505b92915050565b6108396108336113a2565b82611463565b610878576040517f08c379a000000000000000000000000000000000000000000000000000000000815260040161086f90612d98565b60405180910390fd5b6108838383836114f8565b505050565b60008160006009600083815260200190815260200160002060020154146108f957600960008281526020019081526020016000206002015442106108f8576040517f380050cd00000000000000000000000000000000000000000000000000000000815260040160405180910390fd5b5b6009600084815260200190815260200160002060000154915050919050565b8160006009600083815260200190815260200160002060020154146109875760096000828152602001908152602001600020600201544210610986576040517f380050cd00000000000000000000000000000000000000000000000000000000815260040160405180910390fd5b5b33600860009054906101000a900473ffffffffffffffffffffffffffffffffffffffff1673ffffffffffffffffffffffffffffffffffffffff168173ffffffffffffffffffffffffffffffffffffffff1614610a0f576040517ff10d62fc00000000000000000000000000000000000000000000000000000000815260040160405180910390fd5b60405180608001604052808481526020016000815260200160008152602001600067ffffffffffffffff811115610a4957610a48612834565b5b604051908082528060200260200182016040528015610a775781602001602082028036833780820191505090505b50815250600960008681526020019081526020016000206000820151816000015560208201518160010155604082015181600201556060820151816003019080519060200190610ac89291906122b2565b5090505060096000858152602001908152602001600020600301339080600181540180825580915050600190039060005260206000200160009091909190916101000a81548173ffffffffffffffffffffffffffffffffffffffff021916908373ffffffffffffffffffffffffffffffffffffffff16021790555050505050565b610b6483838360405180602001604052806000815250610df7565b505050565b610b7a610b746113a2565b82611463565b610bb9576040517f08c379a0000000000000000000000000000000000000000000000000000000008152600401610bb090612d98565b60405180910390fd5b610bc28161175f565b50565b6000806002600084815260200190815260200160002060009054906101000a900473ffffffffffffffffffffffffffffffffffffffff169050600073ffffffffffffffffffffffffffffffffffffffff168173ffffffffffffffffffffffffffffffffffffffff161415610c6e576040517f08c379a0000000000000000000000000000000000000000000000000000000008152600401610c6590612e04565b60405180910390fd5b80915050919050565b60008073ffffffffffffffffffffffffffffffffffffffff168273ffffffffffffffffffffffffffffffffffffffff161415610ce8576040517f08c379a0000000000000000000000000000000000000000000000000000000008152600401610cdf90612e96565b60405180910390fd5b600360008373ffffffffffffffffffffffffffffffffffffffff1673ffffffffffffffffffffffffffffffffffffffff168152602001908152602001600020549050919050565b600060096000838152602001908152602001600020600201549050919050565b606060018054610d5e90612ba1565b80601f0160208091040260200160405190810160405280929190818152602001828054610d8a90612ba1565b8015610dd75780601f10610dac57610100808354040283529160200191610dd7565b820191906000526020600020905b815481529060010190602001808311610dba57829003601f168201915b5050505050905090565b610df3610dec6113a2565b838361176b565b5050565b610e08610e026113a2565b83611463565b610e47576040517f08c379a0000000000000000000000000000000000000000000000000000000008152600401610e3e90612d98565b60405180910390fd5b610e53848484846118d8565b50505050565b600060096000838152602001908152602001600020600101549050919050565b6060610e8482611934565b9050919050565b600042905090565b33600860009054906101000a900473ffffffffffffffffffffffffffffffffffffffff1673ffffffffffffffffffffffffffffffffffffffff168173ffffffffffffffffffffffffffffffffffffffff1614610f1b576040517ff10d62fc00000000000000000000000000000000000000000000000000000000815260040160405180910390fd5b6000610f276007611a47565b9050610f336007611a55565b610f3d8482611a6b565b610f478184611a89565b50505050565b3381600060096000838152602001908152602001600020600301805480602002602001604051908101604052809291908181526020018280548015610fe757602002820191906000526020600020905b8160009054906101000a900473ffffffffffffffffffffffffffffffffffffffff1673ffffffffffffffffffffffffffffffffffffffff1681526020019060010190808311610f9d575b505050505090506000815190506000826001836110049190612ee5565b8151811061101557611014612cf7565b5b602002602001015190508073ffffffffffffffffffffffffffffffffffffffff168573ffffffffffffffffffffffffffffffffffffffff1614611084576040517f3337f25500000000000000000000000000000000000000000000000000000000815260040160405180910390fd5b8560006009600083815260200190815260200160002060020154146110f357600960008281526020019081526020016000206002015442106110f2576040517f380050cd00000000000000000000000000000000000000000000000000000000815260040160405180910390fd5b5b8861112a576040517f57cc96b500000000000000000000000000000000000000000000000000000000815260040160405180910390fd5b600060096000898152602001908152602001600020600101541415611165574260096000898152602001908152602001600020600101819055505b6000600960008981526020019081526020016000206002015414156111d757600960008881526020019081526020016000206000015460096000898152602001908152602001600020600101546111bc9190612f19565b60096000898152602001908152602001600020600201819055505b60096000888152602001908152602001600020600301889080600181540180825580915050600190039060005260206000200160009091909190916101000a81548173ffffffffffffffffffffffffffffffffffffffff021916908373ffffffffffffffffffffffffffffffffffffffff160217905550505050505050505050565b6000600560008473ffffffffffffffffffffffffffffffffffffffff1673ffffffffffffffffffffffffffffffffffffffff16815260200190815260200160002060008373ffffffffffffffffffffffffffffffffffffffff1673ffffffffffffffffffffffffffffffffffffffff16815260200190815260200160002060009054906101000a900460ff16905092915050565b60007f01ffc9a7000000000000000000000000000000000000000000000000000000007bffffffffffffffffffffffffffffffffffffffffffffffffffffffff1916827bffffffffffffffffffffffffffffffffffffffffffffffffffffffff1916149050919050565b61136081611afd565b61139f576040517f08c379a000000000000000000000000000000000000000000000000000000000815260040161139690612e04565b60405180910390fd5b50565b600033905090565b816004600083815260200190815260200160002060006101000a81548173ffffffffffffffffffffffffffffffffffffffff021916908373ffffffffffffffffffffffffffffffffffffffff160217905550808273ffffffffffffffffffffffffffffffffffffffff1661141d83610bc5565b73ffffffffffffffffffffffffffffffffffffffff167f8c5be1e5ebec7d5bd14f71427d1e84f3dd0314c0f7b2291e5b200ac8c7c3b92560405160405180910390a45050565b60008061146f83610bc5565b90508073ffffffffffffffffffffffffffffffffffffffff168473ffffffffffffffffffffffffffffffffffffffff1614806114b157506114b08185611259565b5b806114ef57508373ffffffffffffffffffffffffffffffffffffffff166114d7846105f1565b73ffffffffffffffffffffffffffffffffffffffff16145b91505092915050565b8273ffffffffffffffffffffffffffffffffffffffff1661151882610bc5565b73ffffffffffffffffffffffffffffffffffffffff161461156e576040517f08c379a000000000000000000000000000000000000000000000000000000000815260040161156590612fe1565b60405180910390fd5b600073ffffffffffffffffffffffffffffffffffffffff168273ffffffffffffffffffffffffffffffffffffffff1614156115de576040517f08c379a00000000000000000000000000000000000000000000000000000000081526004016115d590613073565b60405180910390fd5b6115e9838383611b69565b6115f46000826113aa565b6001600360008573ffffffffffffffffffffffffffffffffffffffff1673ffffffffffffffffffffffffffffffffffffffff16815260200190815260200160002060008282546116449190612ee5565b925050819055506001600360008473ffffffffffffffffffffffffffffffffffffffff1673ffffffffffffffffffffffffffffffffffffffff168152602001908152602001600020600082825461169b9190612f19565b92505081905550816002600083815260200190815260200160002060006101000a81548173ffffffffffffffffffffffffffffffffffffffff021916908373ffffffffffffffffffffffffffffffffffffffff160217905550808273ffffffffffffffffffffffffffffffffffffffff168473ffffffffffffffffffffffffffffffffffffffff167fddf252ad1be2c89b69c2b068fc378daa952ba7f163c4a11628f55a4df523b3ef60405160405180910390a461175a838383611b6e565b505050565b61176881611b73565b50565b8173ffffffffffffffffffffffffffffffffffffffff168373ffffffffffffffffffffffffffffffffffffffff1614156117da576040517f08c379a00000000000000000000000000000000000000000000000000000000081526004016117d1906130df565b60405180910390fd5b80600560008573ffffffffffffffffffffffffffffffffffffffff1673ffffffffffffffffffffffffffffffffffffffff16815260200190815260200160002060008473ffffffffffffffffffffffffffffffffffffffff1673ffffffffffffffffffffffffffffffffffffffff16815260200190815260200160002060006101000a81548160ff0219169083151502179055508173ffffffffffffffffffffffffffffffffffffffff168373ffffffffffffffffffffffffffffffffffffffff167f17307eab39ab6107e8899845ad3d59bd9653f200f220920489ca2b5937696c31836040516118cb91906124d3565b60405180910390a3505050565b6118e38484846114f8565b6118ef84848484611bc6565b61192e576040517f08c379a000000000000000000000000000000000000000000000000000000000815260040161192590613171565b60405180910390fd5b50505050565b606061193f82611357565b600060066000848152602001908152602001600020805461195f90612ba1565b80601f016020809104026020016040519081016040528092919081815260200182805461198b90612ba1565b80156119d85780601f106119ad576101008083540402835291602001916119d8565b820191906000526020600020905b8154815290600101906020018083116119bb57829003601f168201915b5050505050905060006119e9611d5d565b90506000815114156119ff578192505050611a42565b600082511115611a34578082604051602001611a1c9291906131cd565b60405160208183030381529060405292505050611a42565b611a3d84611d74565b925050505b919050565b600081600001549050919050565b6001816000016000828254019250508190555050565b611a85828260405180602001604052806000815250611ddc565b5050565b611a9282611afd565b611ad1576040517f08c379a0000000000000000000000000000000000000000000000000000000008152600401611ac890613263565b60405180910390fd5b80600660008481526020019081526020016000209080519060200190611af892919061233c565b505050565b60008073ffffffffffffffffffffffffffffffffffffffff166002600084815260200190815260200160002060009054906101000a900473ffffffffffffffffffffffffffffffffffffffff1673ffffffffffffffffffffffffffffffffffffffff1614159050919050565b505050565b505050565b611b7c81611e37565b6000600660008381526020019081526020016000208054611b9c90612ba1565b905014611bc357600660008281526020019081526020016000206000611bc291906123c2565b5b50565b6000611be78473ffffffffffffffffffffffffffffffffffffffff16611f54565b15611d50578373ffffffffffffffffffffffffffffffffffffffff1663150b7a02611c106113a2565b8786866040518563ffffffff1660e01b8152600401611c3294939291906132d8565b602060405180830381600087803b158015611c4c57600080fd5b505af1925050508015611c7d57506040513d601f19601f82011682018060405250810190611c7a9190613339565b60015b611d00573d8060008114611cad576040519150601f19603f3d011682016040523d82523d6000602084013e611cb2565b606091505b50600081511415611cf8576040517f08c379a0000000000000000000000000000000000000000000000000000000008152600401611cef90613171565b60405180910390fd5b805181602001fd5b63150b7a0260e01b7bffffffffffffffffffffffffffffffffffffffffffffffffffffffff1916817bffffffffffffffffffffffffffffffffffffffffffffffffffffffff191614915050611d55565b600190505b949350505050565b606060405180602001604052806000815250905090565b6060611d7f82611357565b6000611d89611d5d565b90506000815111611da95760405180602001604052806000815250611dd4565b80611db384611f77565b604051602001611dc49291906131cd565b6040516020818303038152906040525b915050919050565b611de683836120d8565b611df36000848484611bc6565b611e32576040517f08c379a0000000000000000000000000000000000000000000000000000000008152600401611e2990613171565b60405180910390fd5b505050565b6000611e4282610bc5565b9050611e5081600084611b69565b611e5b6000836113aa565b6001600360008373ffffffffffffffffffffffffffffffffffffffff1673ffffffffffffffffffffffffffffffffffffffff1681526020019081526020016000206000828254611eab9190612ee5565b925050819055506002600083815260200190815260200160002060006101000a81549073ffffffffffffffffffffffffffffffffffffffff021916905581600073ffffffffffffffffffffffffffffffffffffffff168273ffffffffffffffffffffffffffffffffffffffff167fddf252ad1be2c89b69c2b068fc378daa952ba7f163c4a11628f55a4df523b3ef60405160405180910390a4611f5081600084611b6e565b5050565b6000808273ffffffffffffffffffffffffffffffffffffffff163b119050919050565b60606000821415611fbf576040518060400160405280600181526020017f300000000000000000000000000000000000000000000000000000000000000081525090506120d3565b600082905060005b60008214611ff1578080611fda90613366565b915050600a82611fea91906133de565b9150611fc7565b60008167ffffffffffffffff81111561200d5761200c612834565b5b6040519080825280601f01601f19166020018201604052801561203f5781602001600182028036833780820191505090505b5090505b600085146120cc576001826120589190612ee5565b9150600a85612067919061340f565b60306120739190612f19565b60f81b81838151811061208957612088612cf7565b5b60200101907effffffffffffffffffffffffffffffffffffffffffffffffffffffffffffff1916908160001a905350600a856120c591906133de565b9450612043565b8093505050505b919050565b600073ffffffffffffffffffffffffffffffffffffffff168273ffffffffffffffffffffffffffffffffffffffff161415612148576040517f08c379a000000000000000000000000000000000000000000000000000000000815260040161213f9061348c565b60405180910390fd5b61215181611afd565b15612191576040517f08c379a0000000000000000000000000000000000000000000000000000000008152600401612188906134f8565b60405180910390fd5b61219d60008383611b69565b6001600360008473ffffffffffffffffffffffffffffffffffffffff1673ffffffffffffffffffffffffffffffffffffffff16815260200190815260200160002060008282546121ed9190612f19565b92505081905550816002600083815260200190815260200160002060006101000a81548173ffffffffffffffffffffffffffffffffffffffff021916908373ffffffffffffffffffffffffffffffffffffffff160217905550808273ffffffffffffffffffffffffffffffffffffffff16600073ffffffffffffffffffffffffffffffffffffffff167fddf252ad1be2c89b69c2b068fc378daa952ba7f163c4a11628f55a4df523b3ef60405160405180910390a46122ae60008383611b6e565b5050565b82805482825590600052602060002090810192821561232b579160200282015b8281111561232a5782518260006101000a81548173ffffffffffffffffffffffffffffffffffffffff021916908373ffffffffffffffffffffffffffffffffffffffff160217905550916020019190600101906122d2565b5b5090506123389190612402565b5090565b82805461234890612ba1565b90600052602060002090601f01602090048101928261236a57600085556123b1565b82601f1061238357805160ff19168380011785556123b1565b828001600101855582156123b1579182015b828111156123b0578251825591602001919060010190612395565b5b5090506123be9190612402565b5090565b5080546123ce90612ba1565b6000825580601f106123e057506123ff565b601f0160209004906000526020600020908101906123fe9190612402565b5b50565b5b8082111561241b576000816000905550600101612403565b5090565b6000604051905090565b600080fd5b600080fd5b60007fffffffff0000000000000000000000000000000000000000000000000000000082169050919050565b61246881612433565b811461247357600080fd5b50565b6000813590506124858161245f565b92915050565b6000602082840312156124a1576124a0612429565b5b60006124af84828501612476565b91505092915050565b60008115159050919050565b6124cd816124b8565b82525050565b60006020820190506124e860008301846124c4565b92915050565b600081519050919050565b600082825260208201905092915050565b60005b8381101561252857808201518184015260208101905061250d565b83811115612537576000848401525b50505050565b6000601f19601f8301169050919050565b6000612559826124ee565b61256381856124f9565b935061257381856020860161250a565b61257c8161253d565b840191505092915050565b600060208201905081810360008301526125a1818461254e565b905092915050565b6000819050919050565b6125bc816125a9565b81146125c757600080fd5b50565b6000813590506125d9816125b3565b92915050565b6000602082840312156125f5576125f4612429565b5b6000612603848285016125ca565b91505092915050565b600073ffffffffffffffffffffffffffffffffffffffff82169050919050565b60006126378261260c565b9050919050565b6126478161262c565b82525050565b6000602082019050612662600083018461263e565b92915050565b6126718161262c565b811461267c57600080fd5b50565b60008135905061268e81612668565b92915050565b600080604083850312156126ab576126aa612429565b5b60006126b98582860161267f565b92505060206126ca858286016125ca565b9150509250929050565b600080604083850312156126eb576126ea612429565b5b60006126f9858286016125ca565b925050602061270a858286016125ca565b9150509250929050565b60008060006060848603121561272d5761272c612429565b5b600061273b8682870161267f565b935050602061274c8682870161267f565b925050604061275d868287016125ca565b9150509250925092565b612770816125a9565b82525050565b600060208201905061278b6000830184612767565b92915050565b6000602082840312156127a7576127a6612429565b5b60006127b58482850161267f565b91505092915050565b6127c7816124b8565b81146127d257600080fd5b50565b6000813590506127e4816127be565b92915050565b6000806040838503121561280157612800612429565b5b600061280f8582860161267f565b9250506020612820858286016127d5565b9150509250929050565b600080fd5b600080fd5b7f4e487b7100000000000000000000000000000000000000000000000000000000600052604160045260246000fd5b61286c8261253d565b810181811067ffffffffffffffff8211171561288b5761288a612834565b5b80604052505050565b600061289e61241f565b90506128aa8282612863565b919050565b600067ffffffffffffffff8211156128ca576128c9612834565b5b6128d38261253d565b9050602081019050919050565b82818337600083830152505050565b60006129026128fd846128af565b612894565b90508281526020810184848401111561291e5761291d61282f565b5b6129298482856128e0565b509392505050565b600082601f8301126129465761294561282a565b5b81356129568482602086016128ef565b91505092915050565b6000806000806080858703121561297957612978612429565b5b60006129878782880161267f565b94505060206129988782880161267f565b93505060406129a9878288016125ca565b925050606085013567ffffffffffffffff8111156129ca576129c961242e565b5b6129d687828801612931565b91505092959194509250565b600067ffffffffffffffff8211156129fd576129fc612834565b5b612a068261253d565b9050602081019050919050565b6000612a26612a21846129e2565b612894565b905082815260208101848484011115612a4257612a4161282f565b5b612a4d8482856128e0565b509392505050565b600082601f830112612a6a57612a6961282a565b5b8135612a7a848260208601612a13565b91505092915050565b60008060408385031215612a9a57612a99612429565b5b6000612aa88582860161267f565b925050602083013567ffffffffffffffff811115612ac957612ac861242e565b5b612ad585828601612a55565b9150509250929050565b600080600060608486031215612af857612af7612429565b5b6000612b06868287016127d5565b9350506020612b178682870161267f565b9250506040612b28868287016125ca565b9150509250925092565b60008060408385031215612b4957612b48612429565b5b6000612b578582860161267f565b9250506020612b688582860161267f565b9150509250929050565b7f4e487b7100000000000000000000000000000000000000000000000000000000600052602260045260246000fd5b60006002820490506001821680612bb957607f821691505b60208210811415612bcd57612bcc612b72565b5b50919050565b7f4552433732313a20617070726f76616c20746f2063757272656e74206f776e6560008201527f7200000000000000000000000000000000000000000000000000000000000000602082015250565b6000612c2f6021836124f9565b9150612c3a82612bd3565b604082019050919050565b60006020820190508181036000830152612c5e81612c22565b9050919050565b7f4552433732313a20617070726f76652063616c6c6572206973206e6f7420746f60008201527f6b656e206f776e6572206e6f7220617070726f76656420666f7220616c6c0000602082015250565b6000612cc1603e836124f9565b9150612ccc82612c65565b604082019050919050565b60006020820190508181036000830152612cf081612cb4565b9050919050565b7f4e487b7100000000000000000000000000000000000000000000000000000000600052603260045260246000fd5b7f4552433732313a2063616c6c6572206973206e6f7420746f6b656e206f776e6560008201527f72206e6f7220617070726f766564000000000000000000000000000000000000602082015250565b6000612d82602e836124f9565b9150612d8d82612d26565b604082019050919050565b60006020820190508181036000830152612db181612d75565b9050919050565b7f4552433732313a20696e76616c696420746f6b656e2049440000000000000000600082015250565b6000612dee6018836124f9565b9150612df982612db8565b602082019050919050565b60006020820190508181036000830152612e1d81612de1565b9050919050565b7f4552433732313a2061646472657373207a65726f206973206e6f74206120766160008201527f6c6964206f776e65720000000000000000000000000000000000000000000000602082015250565b6000612e806029836124f9565b9150612e8b82612e24565b604082019050919050565b60006020820190508181036000830152612eaf81612e73565b9050919050565b7f4e487b7100000000000000000000000000000000000000000000000000000000600052601160045260246000fd5b6000612ef0826125a9565b9150612efb836125a9565b925082821015612f0e57612f0d612eb6565b5b828203905092915050565b6000612f24826125a9565b9150612f2f836125a9565b9250827fffffffffffffffffffffffffffffffffffffffffffffffffffffffffffffffff03821115612f6457612f63612eb6565b5b828201905092915050565b7f4552433732313a207472616e736665722066726f6d20696e636f72726563742060008201527f6f776e6572000000000000000000000000000000000000000000000000000000602082015250565b6000612fcb6025836124f9565b9150612fd682612f6f565b604082019050919050565b60006020820190508181036000830152612ffa81612fbe565b9050919050565b7f4552433732313a207472616e7366657220746f20746865207a65726f2061646460008201527f7265737300000000000000000000000000000000000000000000000000000000602082015250565b600061305d6024836124f9565b915061306882613001565b604082019050919050565b6000602082019050818103600083015261308c81613050565b9050919050565b7f4552433732313a20617070726f766520746f2063616c6c657200000000000000600082015250565b60006130c96019836124f9565b91506130d482613093565b602082019050919050565b600060208201905081810360008301526130f8816130bc565b9050919050565b7f4552433732313a207472616e7366657220746f206e6f6e20455243373231526560008201527f63656976657220696d706c656d656e7465720000000000000000000000000000602082015250565b600061315b6032836124f9565b9150613166826130ff565b604082019050919050565b6000602082019050818103600083015261318a8161314e565b9050919050565b600081905092915050565b60006131a7826124ee565b6131b18185613191565b93506131c181856020860161250a565b80840191505092915050565b60006131d9828561319c565b91506131e5828461319c565b91508190509392505050565b7f45524337323155524953746f726167653a2055524920736574206f66206e6f6e60008201527f6578697374656e7420746f6b656e000000000000000000000000000000000000602082015250565b600061324d602e836124f9565b9150613258826131f1565b604082019050919050565b6000602082019050818103600083015261327c81613240565b9050919050565b600081519050919050565b600082825260208201905092915050565b60006132aa82613283565b6132b4818561328e565b93506132c481856020860161250a565b6132cd8161253d565b840191505092915050565b60006080820190506132ed600083018761263e565b6132fa602083018661263e565b6133076040830185612767565b8181036060830152613319818461329f565b905095945050505050565b6000815190506133338161245f565b92915050565b60006020828403121561334f5761334e612429565b5b600061335d84828501613324565b91505092915050565b6000613371826125a9565b91507fffffffffffffffffffffffffffffffffffffffffffffffffffffffffffffffff8214156133a4576133a3612eb6565b5b600182019050919050565b7f4e487b7100000000000000000000000000000000000000000000000000000000600052601260045260246000fd5b60006133e9826125a9565b91506133f4836125a9565b925082613404576134036133af565b5b828204905092915050565b600061341a826125a9565b9150613425836125a9565b925082613435576134346133af565b5b828206905092915050565b7f4552433732313a206d696e7420746f20746865207a65726f2061646472657373600082015250565b60006134766020836124f9565b915061348182613440565b602082019050919050565b600060208201905081810360008301526134a581613469565b9050919050565b7f4552433732313a20746f6b656e20616c7265616479206d696e74656400000000600082015250565b60006134e2601c836124f9565b91506134ed826134ac565b602082019050919050565b60006020820190508181036000830152613511816134d5565b905091905056fea26469706673582212203836e6bc2a6f652e67db89e6a2d9e3eea17c277d66fc3bfac2ae54c547c2c7e364736f6c63430008090033",
  "devdoc": {
    "kind": "dev",
    "methods": {
      "approve(address,uint256)": {
        "details": "See {IERC721-approve}."
      },
      "balanceOf(address)": {
        "details": "See {IERC721-balanceOf}."
      },
      "burn(uint256)": {
        "details": "Burns `tokenId`. See {ERC721-_burn}. Requirements: - The caller must own `tokenId` or be an approved operator."
      },
      "getApproved(uint256)": {
        "details": "See {IERC721-getApproved}."
      },
      "isApprovedForAll(address,address)": {
        "details": "See {IERC721-isApprovedForAll}."
      },
      "name()": {
        "details": "See {IERC721Metadata-name}."
      },
      "ownerOf(uint256)": {
        "details": "See {IERC721-ownerOf}."
      },
      "safeTransferFrom(address,address,uint256)": {
        "details": "See {IERC721-safeTransferFrom}."
      },
      "safeTransferFrom(address,address,uint256,bytes)": {
        "details": "See {IERC721-safeTransferFrom}."
      },
      "setApprovalForAll(address,bool)": {
        "details": "See {IERC721-setApprovalForAll}."
      },
      "supportsInterface(bytes4)": {
        "details": "See {IERC165-supportsInterface}."
      },
      "symbol()": {
        "details": "See {IERC721Metadata-symbol}."
      },
      "transferFrom(address,address,uint256)": {
        "details": "See {IERC721-transferFrom}."
      }
    },
    "version": 1
  },
  "userdoc": {
    "kind": "user",
    "methods": {},
    "version": 1
  },
  "storageLayout": {
    "storage": [
      {
        "astId": 117,
        "contract": "contracts/WarrantyCardNFT.sol:WarrantyCardStorage",
        "label": "_name",
        "offset": 0,
        "slot": "0",
        "type": "t_string_storage"
      },
      {
        "astId": 119,
        "contract": "contracts/WarrantyCardNFT.sol:WarrantyCardStorage",
        "label": "_symbol",
        "offset": 0,
        "slot": "1",
        "type": "t_string_storage"
      },
      {
        "astId": 123,
        "contract": "contracts/WarrantyCardNFT.sol:WarrantyCardStorage",
        "label": "_owners",
        "offset": 0,
        "slot": "2",
        "type": "t_mapping(t_uint256,t_address)"
      },
      {
        "astId": 127,
        "contract": "contracts/WarrantyCardNFT.sol:WarrantyCardStorage",
        "label": "_balances",
        "offset": 0,
        "slot": "3",
        "type": "t_mapping(t_address,t_uint256)"
      },
      {
        "astId": 131,
        "contract": "contracts/WarrantyCardNFT.sol:WarrantyCardStorage",
        "label": "_tokenApprovals",
        "offset": 0,
        "slot": "4",
        "type": "t_mapping(t_uint256,t_address)"
      },
      {
        "astId": 137,
        "contract": "contracts/WarrantyCardNFT.sol:WarrantyCardStorage",
        "label": "_operatorApprovals",
        "offset": 0,
        "slot": "5",
        "type": "t_mapping(t_address,t_mapping(t_address,t_bool))"
      },
      {
        "astId": 1135,
        "contract": "contracts/WarrantyCardNFT.sol:WarrantyCardStorage",
        "label": "_tokenURIs",
        "offset": 0,
        "slot": "6",
        "type": "t_mapping(t_uint256,t_string_storage)"
      },
      {
        "astId": 1954,
        "contract": "contracts/WarrantyCardNFT.sol:WarrantyCardStorage",
        "label": "_tokenIdCounter",
        "offset": 0,
        "slot": "7",
        "type": "t_struct(Counter)1597_storage"
      },
      {
        "astId": 1973,
        "contract": "contracts/WarrantyCardNFT.sol:WarrantyCardStorage",
        "label": "i_nftCreator",
        "offset": 0,
        "slot": "8",
        "type": "t_address_payable"
      },
      {
        "astId": 1978,
        "contract": "contracts/WarrantyCardNFT.sol:WarrantyCardStorage",
        "label": "tokenIdToNFTInfo",
        "offset": 0,
        "slot": "9",
        "type": "t_mapping(t_uint256,t_struct(nftInfo)1964_storage)"
      }
    ],
    "types": {
      "t_address": {
        "encoding": "inplace",
        "label": "address",
        "numberOfBytes": "20"
      },
      "t_address_payable": {
        "encoding": "inplace",
        "label": "address payable",
        "numberOfBytes": "20"
      },
      "t_array(t_address)dyn_storage": {
        "base": "t_address",
        "encoding": "dynamic_array",
        "label": "address[]",
        "numberOfBytes": "32"
      },
      "t_bool": {
        "encoding": "inplace",
        "label": "bool",
        "numberOfBytes": "1"
      },
      "t_mapping(t_address,t_bool)": {
        "encoding": "mapping",
        "key": "t_address",
        "label": "mapping(address => bool)",
        "numberOfBytes": "32",
        "value": "t_bool"
      },
      "t_mapping(t_address,t_mapping(t_address,t_bool))": {
        "encoding": "mapping",
        "key": "t_address",
        "label": "mapping(address => mapping(address => bool))",
        "numberOfBytes": "32",
        "value": "t_mapping(t_address,t_bool)"
      },
      "t_mapping(t_address,t_uint256)": {
        "encoding": "mapping",
        "key": "t_address",
        "label": "mapping(address => uint256)",
        "numberOfBytes": "32",
        "value": "t_uint256"
      },
      "t_mapping(t_uint256,t_address)": {
        "encoding": "mapping",
        "key": "t_uint256",
        "label": "mapping(uint256 => address)",
        "numberOfBytes": "32",
        "value": "t_address"
      },
      "t_mapping(t_uint256,t_string_storage)": {
        "encoding": "mapping",
        "key": "t_uint256",
        "label": "mapping(uint256 => string)",
        "numberOfBytes": "32",
        "value": "t_string_storage"
      },
      "t_mapping(t_uint256,t_struct(nftInfo)1964_storage)": {
        "encoding": "mapping",
        "key": "t_uint256",
        "label": "mapping(uint256 => struct WarrantyCardStorage.nftInfo)",
        "numberOfBytes": "32",
        "value": "t_struct(nftInfo)1964_storage"
      },
      "t_string_storage": {
        "encoding": "bytes",
        "label": "string",
        "numberOfBytes": "32"
      },
      "t_struct(Counter)1597_storage": {
        "encoding": "inplace",
        "label": "struct Counters.Counter",
        "members": [
          {
            "astId": 1596,
            "contract": "contracts/WarrantyCardNFT.sol:WarrantyCardStorage",
            "label": "_value",
            "offset": 0,
            "slot": "0",
            "type": "t_uint256"
          }
        ],
        "numberOfBytes": "32"
      },
      "t_struct(nftInfo)1964_storage": {
        "encoding": "inplace",
        "label": "struct WarrantyCardStorage.nftInfo",
        "members": [
          {
            "astId": 1956,
            "contract": "contracts/WarrantyCardNFT.sol:WarrantyCardStorage",
            "label": "duration",
            "offset": 0,
            "slot": "0",
            "type": "t_uint256"
          },
          {
            "astId": 1958,
            "contract": "contracts/WarrantyCardNFT.sol:WarrantyCardStorage",
            "label": "startTime",
            "offset": 0,
            "slot": "1",
            "type": "t_uint256"
          },
          {
            "astId": 1960,
            "contract": "contracts/WarrantyCardNFT.sol:WarrantyCardStorage",
            "label": "endTime",
            "offset": 0,
            "slot": "2",
            "type": "t_uint256"
          },
          {
            "astId": 1963,
            "contract": "contracts/WarrantyCardNFT.sol:WarrantyCardStorage",
            "label": "owners",
            "offset": 0,
            "slot": "3",
            "type": "t_array(t_address)dyn_storage"
          }
        ],
        "numberOfBytes": "128"
      },
      "t_uint256": {
        "encoding": "inplace",
        "label": "uint256",
        "numberOfBytes": "32"
      }
    }
  }
}