{
  "address": "0x171F6Cd3aaa32a6f1cFDAa63fF0a2d056473C569",
  "abi": [
    {
      "inputs": [
        {
          "internalType": "string",
          "name": "nftName",
          "type": "string"
        },
        {
          "internalType": "string",
          "name": "nftShortHand",
          "type": "string"
        }
      ],
      "stateMutability": "nonpayable",
      "type": "constructor"
    },
    {
      "inputs": [],
      "name": "Product_Creator_Unidentified",
      "type": "error"
    },
    {
      "inputs": [],
      "name": "Product_Not_Purchased",
      "type": "error"
    },
    {
      "inputs": [],
      "name": "Product_Owner_Unidentified",
      "type": "error"
    },
    {
      "inputs": [],
      "name": "Product_WarrantyPeriod_Over",
      "type": "error"
    },
    {
      "anonymous": false,
      "inputs": [
        {
          "indexed": true,
          "internalType": "address",
          "name": "owner",
          "type": "address"
        },
        {
          "indexed": true,
          "internalType": "address",
          "name": "approved",
          "type": "address"
        },
        {
          "indexed": true,
          "internalType": "uint256",
          "name": "tokenId",
          "type": "uint256"
        }
      ],
      "name": "Approval",
      "type": "event"
    },
    {
      "anonymous": false,
      "inputs": [
        {
          "indexed": true,
          "internalType": "address",
          "name": "owner",
          "type": "address"
        },
        {
          "indexed": true,
          "internalType": "address",
          "name": "operator",
          "type": "address"
        },
        {
          "indexed": false,
          "internalType": "bool",
          "name": "approved",
          "type": "bool"
        }
      ],
      "name": "ApprovalForAll",
      "type": "event"
    },
    {
      "anonymous": false,
      "inputs": [
        {
          "indexed": true,
          "internalType": "address",
          "name": "from",
          "type": "address"
        },
        {
          "indexed": true,
          "internalType": "address",
          "name": "to",
          "type": "address"
        },
        {
          "indexed": true,
          "internalType": "uint256",
          "name": "tokenId",
          "type": "uint256"
        }
      ],
      "name": "Transfer",
      "type": "event"
    },
    {
      "inputs": [
        {
          "internalType": "address",
          "name": "to",
          "type": "address"
        },
        {
          "internalType": "uint256",
          "name": "tokenId",
          "type": "uint256"
        }
      ],
      "name": "approve",
      "outputs": [],
      "stateMutability": "nonpayable",
      "type": "function"
    },
    {
      "inputs": [
        {
          "internalType": "address",
          "name": "owner",
          "type": "address"
        }
      ],
      "name": "balanceOf",
      "outputs": [
        {
          "internalType": "uint256",
          "name": "",
          "type": "uint256"
        }
      ],
      "stateMutability": "view",
      "type": "function"
    },
    {
      "inputs": [
        {
          "internalType": "uint256",
          "name": "tokenId",
          "type": "uint256"
        }
      ],
      "name": "burn",
      "outputs": [],
      "stateMutability": "nonpayable",
      "type": "function"
    },
    {
      "inputs": [
        {
          "internalType": "bool",
          "name": "hasPurchased",
          "type": "bool"
        },
        {
          "internalType": "uint256",
          "name": "tokenId",
          "type": "uint256"
        }
      ],
      "name": "changeWarrantyPeriod",
      "outputs": [],
      "stateMutability": "nonpayable",
      "type": "function"
    },
    {
      "inputs": [
        {
          "internalType": "uint256",
          "name": "tokenId",
          "type": "uint256"
        }
      ],
      "name": "getApproved",
      "outputs": [
        {
          "internalType": "address",
          "name": "",
          "type": "address"
        }
      ],
      "stateMutability": "view",
      "type": "function"
    },
    {
      "inputs": [],
      "name": "getBlockTimeStamp",
      "outputs": [
        {
          "internalType": "uint256",
          "name": "",
          "type": "uint256"
        }
      ],
      "stateMutability": "view",
      "type": "function"
    },
    {
      "inputs": [
        {
          "internalType": "uint256",
          "name": "tokenId",
          "type": "uint256"
        }
      ],
      "name": "getCurrentWarrantyDuration",
      "outputs": [
        {
          "internalType": "uint256",
          "name": "",
          "type": "uint256"
        }
      ],
      "stateMutability": "view",
      "type": "function"
    },
    {
      "inputs": [
        {
          "internalType": "uint256",
          "name": "tokenId",
          "type": "uint256"
        }
      ],
      "name": "getEndTime",
      "outputs": [
        {
          "internalType": "uint256",
          "name": "",
          "type": "uint256"
        }
      ],
      "stateMutability": "view",
      "type": "function"
    },
    {
      "inputs": [
        {
          "internalType": "uint256",
          "name": "tokenId",
          "type": "uint256"
        }
      ],
      "name": "getStartTime",
      "outputs": [
        {
          "internalType": "uint256",
          "name": "",
          "type": "uint256"
        }
      ],
      "stateMutability": "view",
      "type": "function"
    },
    {
      "inputs": [
        {
          "internalType": "address",
          "name": "owner",
          "type": "address"
        },
        {
          "internalType": "address",
          "name": "operator",
          "type": "address"
        }
      ],
      "name": "isApprovedForAll",
      "outputs": [
        {
          "internalType": "bool",
          "name": "",
          "type": "bool"
        }
      ],
      "stateMutability": "view",
      "type": "function"
    },
    {
      "inputs": [],
      "name": "name",
      "outputs": [
        {
          "internalType": "string",
          "name": "",
          "type": "string"
        }
      ],
      "stateMutability": "view",
      "type": "function"
    },
    {
      "inputs": [
        {
          "internalType": "uint256",
          "name": "tokenId",
          "type": "uint256"
        }
      ],
      "name": "ownerOf",
      "outputs": [
        {
          "internalType": "address",
          "name": "",
          "type": "address"
        }
      ],
      "stateMutability": "view",
      "type": "function"
    },
    {
      "inputs": [
        {
          "internalType": "address",
          "name": "to",
          "type": "address"
        },
        {
          "internalType": "string",
          "name": "uri",
          "type": "string"
        }
      ],
      "name": "safeMint",
      "outputs": [],
      "stateMutability": "nonpayable",
      "type": "function"
    },
    {
      "inputs": [
        {
          "internalType": "address",
          "name": "from",
          "type": "address"
        },
        {
          "internalType": "address",
          "name": "to",
          "type": "address"
        },
        {
          "internalType": "uint256",
          "name": "tokenId",
          "type": "uint256"
        }
      ],
      "name": "safeTransferFrom",
      "outputs": [],
      "stateMutability": "nonpayable",
      "type": "function"
    },
    {
      "inputs": [
        {
          "internalType": "address",
          "name": "from",
          "type": "address"
        },
        {
          "internalType": "address",
          "name": "to",
          "type": "address"
        },
        {
          "internalType": "uint256",
          "name": "tokenId",
          "type": "uint256"
        },
        {
          "internalType": "bytes",
          "name": "data",
          "type": "bytes"
        }
      ],
      "name": "safeTransferFrom",
      "outputs": [],
      "stateMutability": "nonpayable",
      "type": "function"
    },
    {
      "inputs": [
        {
          "internalType": "address",
          "name": "operator",
          "type": "address"
        },
        {
          "internalType": "bool",
          "name": "approved",
          "type": "bool"
        }
      ],
      "name": "setApprovalForAll",
      "outputs": [],
      "stateMutability": "nonpayable",
      "type": "function"
    },
    {
      "inputs": [
        {
          "internalType": "uint256",
          "name": "tokenId",
          "type": "uint256"
        },
        {
          "internalType": "uint256",
          "name": "duration",
          "type": "uint256"
        }
      ],
      "name": "setDurationForTokenId",
      "outputs": [],
      "stateMutability": "nonpayable",
      "type": "function"
    },
    {
      "inputs": [
        {
          "internalType": "bytes4",
          "name": "interfaceId",
          "type": "bytes4"
        }
      ],
      "name": "supportsInterface",
      "outputs": [
        {
          "internalType": "bool",
          "name": "",
          "type": "bool"
        }
      ],
      "stateMutability": "view",
      "type": "function"
    },
    {
      "inputs": [],
      "name": "symbol",
      "outputs": [
        {
          "internalType": "string",
          "name": "",
          "type": "string"
        }
      ],
      "stateMutability": "view",
      "type": "function"
    },
    {
      "inputs": [
        {
          "internalType": "uint256",
          "name": "tokenId",
          "type": "uint256"
        }
      ],
      "name": "tokenURI",
      "outputs": [
        {
          "internalType": "string",
          "name": "",
          "type": "string"
        }
      ],
      "stateMutability": "view",
      "type": "function"
    },
    {
      "inputs": [
        {
          "internalType": "address",
          "name": "from",
          "type": "address"
        },
        {
          "internalType": "address",
          "name": "to",
          "type": "address"
        },
        {
          "internalType": "uint256",
          "name": "tokenId",
          "type": "uint256"
        }
      ],
      "name": "transferFrom",
      "outputs": [],
      "stateMutability": "nonpayable",
      "type": "function"
    }
  ],
  "transactionHash": "0x788166b7d0c56a562b9da398f8867312fc110032a415a73e1a53ecdcb29e9ecb",
  "args": [
    "Tempro",
    "RET"
  ],
  "numDeployments": 1,
  "solcInputHash": "896c82a37ae14353424eeb6aa71ea78c",
  "bytecode": "0x60806040526000600860006101000a81548173ffffffffffffffffffffffffffffffffffffffff021916908373ffffffffffffffffffffffffffffffffffffffff1602179055503480156200005357600080fd5b506040516200359c3803806200359c833981810160405281019062000079919062000345565b8181816000908051906020019062000093929190620000f8565b508060019080519060200190620000ac929190620000f8565b50505033600860006101000a81548173ffffffffffffffffffffffffffffffffffffffff021916908373ffffffffffffffffffffffffffffffffffffffff16021790555050506200042f565b8280546200010690620003f9565b90600052602060002090601f0160209004810192826200012a576000855562000176565b82601f106200014557805160ff191683800117855562000176565b8280016001018555821562000176579182015b828111156200017557825182559160200191906001019062000158565b5b50905062000185919062000189565b5090565b5b80821115620001a45760008160009055506001016200018a565b5090565b6000604051905090565b600080fd5b600080fd5b600080fd5b600080fd5b6000601f19601f8301169050919050565b7f4e487b7100000000000000000000000000000000000000000000000000000000600052604160045260246000fd5b6200021182620001c6565b810181811067ffffffffffffffff82111715620002335762000232620001d7565b5b80604052505050565b600062000248620001a8565b905062000256828262000206565b919050565b600067ffffffffffffffff821115620002795762000278620001d7565b5b6200028482620001c6565b9050602081019050919050565b60005b83811015620002b157808201518184015260208101905062000294565b83811115620002c1576000848401525b50505050565b6000620002de620002d8846200025b565b6200023c565b905082815260208101848484011115620002fd57620002fc620001c1565b5b6200030a84828562000291565b509392505050565b600082601f8301126200032a5762000329620001bc565b5b81516200033c848260208601620002c7565b91505092915050565b600080604083850312156200035f576200035e620001b2565b5b600083015167ffffffffffffffff81111562000380576200037f620001b7565b5b6200038e8582860162000312565b925050602083015167ffffffffffffffff811115620003b257620003b1620001b7565b5b620003c08582860162000312565b9150509250929050565b7f4e487b7100000000000000000000000000000000000000000000000000000000600052602260045260246000fd5b600060028204905060018216806200041257607f821691505b60208210811415620004295762000428620003ca565b5b50919050565b61315d806200043f6000396000f3fe608060405234801561001057600080fd5b50600436106101375760003560e01c806370a08231116100b8578063b88d4fde1161007c578063b88d4fde1461035c578063bc2be1be14610378578063c87b56dd146103a8578063ca49a543146103d8578063d204c45e146103f6578063e985e9c51461041257610137565b806370a08231146102a65780639067b677146102d657806395d89b4114610306578063a22cb46514610324578063a91f468c1461034057610137565b806331af6418116100ff57806331af6418146101f257806333c734971461022257806342842e0e1461023e57806342966c681461025a5780636352211e1461027657610137565b806301ffc9a71461013c57806306fdde031461016c578063081812fc1461018a578063095ea7b3146101ba57806323b872dd146101d6575b600080fd5b610156600480360381019061015191906120ad565b610442565b60405161016391906120f5565b60405180910390f35b610174610524565b60405161018191906121a9565b60405180910390f35b6101a4600480360381019061019f9190612201565b6105b6565b6040516101b1919061226f565b60405180910390f35b6101d460048036038101906101cf91906122b6565b6105fc565b005b6101f060048036038101906101eb91906122f6565b610714565b005b61020c60048036038101906102079190612201565b610774565b6040516102199190612358565b60405180910390f35b61023c60048036038101906102379190612373565b610804565b005b610258600480360381019061025391906122f6565b610952565b005b610274600480360381019061026f9190612201565b610972565b005b610290600480360381019061028b9190612201565b6109ce565b60405161029d919061226f565b60405180910390f35b6102c060048036038101906102bb91906123b3565b610a80565b6040516102cd9190612358565b60405180910390f35b6102f060048036038101906102eb9190612201565b610b38565b6040516102fd9190612358565b60405180910390f35b61030e610b58565b60405161031b91906121a9565b60405180910390f35b61033e6004803603810190610339919061240c565b610bea565b005b61035a6004803603810190610355919061244c565b610c00565b005b610376600480360381019061037191906125c1565b610daf565b005b610392600480360381019061038d9190612201565b610e11565b60405161039f9190612358565b60405180910390f35b6103c260048036038101906103bd9190612201565b610e31565b6040516103cf91906121a9565b60405180910390f35b6103e0610e43565b6040516103ed9190612358565b60405180910390f35b610410600480360381019061040b91906126e5565b610e4b565b005b61042c60048036038101906104279190612741565b610f05565b60405161043991906120f5565b60405180910390f35b60007f80ac58cd000000000000000000000000000000000000000000000000000000007bffffffffffffffffffffffffffffffffffffffffffffffffffffffff1916827bffffffffffffffffffffffffffffffffffffffffffffffffffffffff1916148061050d57507f5b5e139f000000000000000000000000000000000000000000000000000000007bffffffffffffffffffffffffffffffffffffffffffffffffffffffff1916827bffffffffffffffffffffffffffffffffffffffffffffffffffffffff1916145b8061051d575061051c82610f99565b5b9050919050565b606060008054610533906127b0565b80601f016020809104026020016040519081016040528092919081815260200182805461055f906127b0565b80156105ac5780601f10610581576101008083540402835291602001916105ac565b820191906000526020600020905b81548152906001019060200180831161058f57829003601f168201915b5050505050905090565b60006105c182611003565b6004600083815260200190815260200160002060009054906101000a900473ffffffffffffffffffffffffffffffffffffffff169050919050565b6000610607826109ce565b90508073ffffffffffffffffffffffffffffffffffffffff168373ffffffffffffffffffffffffffffffffffffffff161415610678576040517f08c379a000000000000000000000000000000000000000000000000000000000815260040161066f90612854565b60405180910390fd5b8073ffffffffffffffffffffffffffffffffffffffff1661069761104e565b73ffffffffffffffffffffffffffffffffffffffff1614806106c657506106c5816106c061104e565b610f05565b5b610705576040517f08c379a00000000000000000000000000000000000000000000000000000000081526004016106fc906128e6565b60405180910390fd5b61070f8383611056565b505050565b61072561071f61104e565b8261110f565b610764576040517f08c379a000000000000000000000000000000000000000000000000000000000815260040161075b90612978565b60405180910390fd5b61076f8383836111a4565b505050565b60008160006009600083815260200190815260200160002060020154146107e557600960008281526020019081526020016000206002015442106107e4576040517f380050cd00000000000000000000000000000000000000000000000000000000815260040160405180910390fd5b5b6009600084815260200190815260200160002060000154915050919050565b8160006009600083815260200190815260200160002060020154146108735760096000828152602001908152602001600020600201544210610872576040517f380050cd00000000000000000000000000000000000000000000000000000000815260040160405180910390fd5b5b33600860009054906101000a900473ffffffffffffffffffffffffffffffffffffffff1673ffffffffffffffffffffffffffffffffffffffff168173ffffffffffffffffffffffffffffffffffffffff16146108fb576040517ff10d62fc00000000000000000000000000000000000000000000000000000000815260040160405180910390fd5b60405180606001604052808481526020016000815260200160008152506009600086815260200190815260200160002060008201518160000155602082015181600101556040820151816002015590505050505050565b61096d83838360405180602001604052806000815250610daf565b505050565b61098361097d61104e565b8261110f565b6109c2576040517f08c379a00000000000000000000000000000000000000000000000000000000081526004016109b990612978565b60405180910390fd5b6109cb8161140b565b50565b6000806002600084815260200190815260200160002060009054906101000a900473ffffffffffffffffffffffffffffffffffffffff169050600073ffffffffffffffffffffffffffffffffffffffff168173ffffffffffffffffffffffffffffffffffffffff161415610a77576040517f08c379a0000000000000000000000000000000000000000000000000000000008152600401610a6e906129e4565b60405180910390fd5b80915050919050565b60008073ffffffffffffffffffffffffffffffffffffffff168273ffffffffffffffffffffffffffffffffffffffff161415610af1576040517f08c379a0000000000000000000000000000000000000000000000000000000008152600401610ae890612a76565b60405180910390fd5b600360008373ffffffffffffffffffffffffffffffffffffffff1673ffffffffffffffffffffffffffffffffffffffff168152602001908152602001600020549050919050565b600060096000838152602001908152602001600020600201549050919050565b606060018054610b67906127b0565b80601f0160208091040260200160405190810160405280929190818152602001828054610b93906127b0565b8015610be05780601f10610bb557610100808354040283529160200191610be0565b820191906000526020600020905b815481529060010190602001808311610bc357829003601f168201915b5050505050905090565b610bfc610bf561104e565b8383611417565b5050565b33816000610c0d826109ce565b90508073ffffffffffffffffffffffffffffffffffffffff168373ffffffffffffffffffffffffffffffffffffffff1614610c74576040517f3337f25500000000000000000000000000000000000000000000000000000000815260040160405180910390fd5b836000600960008381526020019081526020016000206002015414610ce35760096000828152602001908152602001600020600201544210610ce2576040517f380050cd00000000000000000000000000000000000000000000000000000000815260040160405180910390fd5b5b85610d1a576040517f57cc96b500000000000000000000000000000000000000000000000000000000815260040160405180910390fd5b426009600087815260200190815260200160002060010181905550600060096000878152602001908152602001600020600201541415610da75760096000868152602001908152602001600020600001546009600087815260200190815260200160002060010154610d8c9190612ac5565b60096000878152602001908152602001600020600201819055505b505050505050565b610dc0610dba61104e565b8361110f565b610dff576040517f08c379a0000000000000000000000000000000000000000000000000000000008152600401610df690612978565b60405180910390fd5b610e0b84848484611584565b50505050565b600060096000838152602001908152602001600020600101549050919050565b6060610e3c826115e0565b9050919050565b600042905090565b33600860009054906101000a900473ffffffffffffffffffffffffffffffffffffffff1673ffffffffffffffffffffffffffffffffffffffff168173ffffffffffffffffffffffffffffffffffffffff1614610ed3576040517ff10d62fc00000000000000000000000000000000000000000000000000000000815260040160405180910390fd5b6000610edf60076116f3565b9050610eeb6007611701565b610ef58482611717565b610eff8184611735565b50505050565b6000600560008473ffffffffffffffffffffffffffffffffffffffff1673ffffffffffffffffffffffffffffffffffffffff16815260200190815260200160002060008373ffffffffffffffffffffffffffffffffffffffff1673ffffffffffffffffffffffffffffffffffffffff16815260200190815260200160002060009054906101000a900460ff16905092915050565b60007f01ffc9a7000000000000000000000000000000000000000000000000000000007bffffffffffffffffffffffffffffffffffffffffffffffffffffffff1916827bffffffffffffffffffffffffffffffffffffffffffffffffffffffff1916149050919050565b61100c816117a9565b61104b576040517f08c379a0000000000000000000000000000000000000000000000000000000008152600401611042906129e4565b60405180910390fd5b50565b600033905090565b816004600083815260200190815260200160002060006101000a81548173ffffffffffffffffffffffffffffffffffffffff021916908373ffffffffffffffffffffffffffffffffffffffff160217905550808273ffffffffffffffffffffffffffffffffffffffff166110c9836109ce565b73ffffffffffffffffffffffffffffffffffffffff167f8c5be1e5ebec7d5bd14f71427d1e84f3dd0314c0f7b2291e5b200ac8c7c3b92560405160405180910390a45050565b60008061111b836109ce565b90508073ffffffffffffffffffffffffffffffffffffffff168473ffffffffffffffffffffffffffffffffffffffff16148061115d575061115c8185610f05565b5b8061119b57508373ffffffffffffffffffffffffffffffffffffffff16611183846105b6565b73ffffffffffffffffffffffffffffffffffffffff16145b91505092915050565b8273ffffffffffffffffffffffffffffffffffffffff166111c4826109ce565b73ffffffffffffffffffffffffffffffffffffffff161461121a576040517f08c379a000000000000000000000000000000000000000000000000000000000815260040161121190612b8d565b60405180910390fd5b600073ffffffffffffffffffffffffffffffffffffffff168273ffffffffffffffffffffffffffffffffffffffff16141561128a576040517f08c379a000000000000000000000000000000000000000000000000000000000815260040161128190612c1f565b60405180910390fd5b611295838383611815565b6112a0600082611056565b6001600360008573ffffffffffffffffffffffffffffffffffffffff1673ffffffffffffffffffffffffffffffffffffffff16815260200190815260200160002060008282546112f09190612c3f565b925050819055506001600360008473ffffffffffffffffffffffffffffffffffffffff1673ffffffffffffffffffffffffffffffffffffffff16815260200190815260200160002060008282546113479190612ac5565b92505081905550816002600083815260200190815260200160002060006101000a81548173ffffffffffffffffffffffffffffffffffffffff021916908373ffffffffffffffffffffffffffffffffffffffff160217905550808273ffffffffffffffffffffffffffffffffffffffff168473ffffffffffffffffffffffffffffffffffffffff167fddf252ad1be2c89b69c2b068fc378daa952ba7f163c4a11628f55a4df523b3ef60405160405180910390a461140683838361181a565b505050565b6114148161181f565b50565b8173ffffffffffffffffffffffffffffffffffffffff168373ffffffffffffffffffffffffffffffffffffffff161415611486576040517f08c379a000000000000000000000000000000000000000000000000000000000815260040161147d90612cbf565b60405180910390fd5b80600560008573ffffffffffffffffffffffffffffffffffffffff1673ffffffffffffffffffffffffffffffffffffffff16815260200190815260200160002060008473ffffffffffffffffffffffffffffffffffffffff1673ffffffffffffffffffffffffffffffffffffffff16815260200190815260200160002060006101000a81548160ff0219169083151502179055508173ffffffffffffffffffffffffffffffffffffffff168373ffffffffffffffffffffffffffffffffffffffff167f17307eab39ab6107e8899845ad3d59bd9653f200f220920489ca2b5937696c318360405161157791906120f5565b60405180910390a3505050565b61158f8484846111a4565b61159b84848484611872565b6115da576040517f08c379a00000000000000000000000000000000000000000000000000000000081526004016115d190612d51565b60405180910390fd5b50505050565b60606115eb82611003565b600060066000848152602001908152602001600020805461160b906127b0565b80601f0160208091040260200160405190810160405280929190818152602001828054611637906127b0565b80156116845780601f1061165957610100808354040283529160200191611684565b820191906000526020600020905b81548152906001019060200180831161166757829003601f168201915b505050505090506000611695611a09565b90506000815114156116ab5781925050506116ee565b6000825111156116e05780826040516020016116c8929190612dad565b604051602081830303815290604052925050506116ee565b6116e984611a20565b925050505b919050565b600081600001549050919050565b6001816000016000828254019250508190555050565b611731828260405180602001604052806000815250611a88565b5050565b61173e826117a9565b61177d576040517f08c379a000000000000000000000000000000000000000000000000000000000815260040161177490612e43565b60405180910390fd5b806006600084815260200190815260200160002090805190602001906117a4929190611f5e565b505050565b60008073ffffffffffffffffffffffffffffffffffffffff166002600084815260200190815260200160002060009054906101000a900473ffffffffffffffffffffffffffffffffffffffff1673ffffffffffffffffffffffffffffffffffffffff1614159050919050565b505050565b505050565b61182881611ae3565b6000600660008381526020019081526020016000208054611848906127b0565b90501461186f5760066000828152602001908152602001600020600061186e9190611fe4565b5b50565b60006118938473ffffffffffffffffffffffffffffffffffffffff16611c00565b156119fc578373ffffffffffffffffffffffffffffffffffffffff1663150b7a026118bc61104e565b8786866040518563ffffffff1660e01b81526004016118de9493929190612eb8565b602060405180830381600087803b1580156118f857600080fd5b505af192505050801561192957506040513d601f19601f820116820180604052508101906119269190612f19565b60015b6119ac573d8060008114611959576040519150601f19603f3d011682016040523d82523d6000602084013e61195e565b606091505b506000815114156119a4576040517f08c379a000000000000000000000000000000000000000000000000000000000815260040161199b90612d51565b60405180910390fd5b805181602001fd5b63150b7a0260e01b7bffffffffffffffffffffffffffffffffffffffffffffffffffffffff1916817bffffffffffffffffffffffffffffffffffffffffffffffffffffffff191614915050611a01565b600190505b949350505050565b606060405180602001604052806000815250905090565b6060611a2b82611003565b6000611a35611a09565b90506000815111611a555760405180602001604052806000815250611a80565b80611a5f84611c23565b604051602001611a70929190612dad565b6040516020818303038152906040525b915050919050565b611a928383611d84565b611a9f6000848484611872565b611ade576040517f08c379a0000000000000000000000000000000000000000000000000000000008152600401611ad590612d51565b60405180910390fd5b505050565b6000611aee826109ce565b9050611afc81600084611815565b611b07600083611056565b6001600360008373ffffffffffffffffffffffffffffffffffffffff1673ffffffffffffffffffffffffffffffffffffffff1681526020019081526020016000206000828254611b579190612c3f565b925050819055506002600083815260200190815260200160002060006101000a81549073ffffffffffffffffffffffffffffffffffffffff021916905581600073ffffffffffffffffffffffffffffffffffffffff168273ffffffffffffffffffffffffffffffffffffffff167fddf252ad1be2c89b69c2b068fc378daa952ba7f163c4a11628f55a4df523b3ef60405160405180910390a4611bfc8160008461181a565b5050565b6000808273ffffffffffffffffffffffffffffffffffffffff163b119050919050565b60606000821415611c6b576040518060400160405280600181526020017f30000000000000000000000000000000000000000000000000000000000000008152509050611d7f565b600082905060005b60008214611c9d578080611c8690612f46565b915050600a82611c969190612fbe565b9150611c73565b60008167ffffffffffffffff811115611cb957611cb8612496565b5b6040519080825280601f01601f191660200182016040528015611ceb5781602001600182028036833780820191505090505b5090505b60008514611d7857600182611d049190612c3f565b9150600a85611d139190612fef565b6030611d1f9190612ac5565b60f81b818381518110611d3557611d34613020565b5b60200101907effffffffffffffffffffffffffffffffffffffffffffffffffffffffffffff1916908160001a905350600a85611d719190612fbe565b9450611cef565b8093505050505b919050565b600073ffffffffffffffffffffffffffffffffffffffff168273ffffffffffffffffffffffffffffffffffffffff161415611df4576040517f08c379a0000000000000000000000000000000000000000000000000000000008152600401611deb9061309b565b60405180910390fd5b611dfd816117a9565b15611e3d576040517f08c379a0000000000000000000000000000000000000000000000000000000008152600401611e3490613107565b60405180910390fd5b611e4960008383611815565b6001600360008473ffffffffffffffffffffffffffffffffffffffff1673ffffffffffffffffffffffffffffffffffffffff1681526020019081526020016000206000828254611e999190612ac5565b92505081905550816002600083815260200190815260200160002060006101000a81548173ffffffffffffffffffffffffffffffffffffffff021916908373ffffffffffffffffffffffffffffffffffffffff160217905550808273ffffffffffffffffffffffffffffffffffffffff16600073ffffffffffffffffffffffffffffffffffffffff167fddf252ad1be2c89b69c2b068fc378daa952ba7f163c4a11628f55a4df523b3ef60405160405180910390a4611f5a6000838361181a565b5050565b828054611f6a906127b0565b90600052602060002090601f016020900481019282611f8c5760008555611fd3565b82601f10611fa557805160ff1916838001178555611fd3565b82800160010185558215611fd3579182015b82811115611fd2578251825591602001919060010190611fb7565b5b509050611fe09190612024565b5090565b508054611ff0906127b0565b6000825580601f106120025750612021565b601f0160209004906000526020600020908101906120209190612024565b5b50565b5b8082111561203d576000816000905550600101612025565b5090565b6000604051905090565b600080fd5b600080fd5b60007fffffffff0000000000000000000000000000000000000000000000000000000082169050919050565b61208a81612055565b811461209557600080fd5b50565b6000813590506120a781612081565b92915050565b6000602082840312156120c3576120c261204b565b5b60006120d184828501612098565b91505092915050565b60008115159050919050565b6120ef816120da565b82525050565b600060208201905061210a60008301846120e6565b92915050565b600081519050919050565b600082825260208201905092915050565b60005b8381101561214a57808201518184015260208101905061212f565b83811115612159576000848401525b50505050565b6000601f19601f8301169050919050565b600061217b82612110565b612185818561211b565b935061219581856020860161212c565b61219e8161215f565b840191505092915050565b600060208201905081810360008301526121c38184612170565b905092915050565b6000819050919050565b6121de816121cb565b81146121e957600080fd5b50565b6000813590506121fb816121d5565b92915050565b6000602082840312156122175761221661204b565b5b6000612225848285016121ec565b91505092915050565b600073ffffffffffffffffffffffffffffffffffffffff82169050919050565b60006122598261222e565b9050919050565b6122698161224e565b82525050565b60006020820190506122846000830184612260565b92915050565b6122938161224e565b811461229e57600080fd5b50565b6000813590506122b08161228a565b92915050565b600080604083850312156122cd576122cc61204b565b5b60006122db858286016122a1565b92505060206122ec858286016121ec565b9150509250929050565b60008060006060848603121561230f5761230e61204b565b5b600061231d868287016122a1565b935050602061232e868287016122a1565b925050604061233f868287016121ec565b9150509250925092565b612352816121cb565b82525050565b600060208201905061236d6000830184612349565b92915050565b6000806040838503121561238a5761238961204b565b5b6000612398858286016121ec565b92505060206123a9858286016121ec565b9150509250929050565b6000602082840312156123c9576123c861204b565b5b60006123d7848285016122a1565b91505092915050565b6123e9816120da565b81146123f457600080fd5b50565b600081359050612406816123e0565b92915050565b600080604083850312156124235761242261204b565b5b6000612431858286016122a1565b9250506020612442858286016123f7565b9150509250929050565b600080604083850312156124635761246261204b565b5b6000612471858286016123f7565b9250506020612482858286016121ec565b9150509250929050565b600080fd5b600080fd5b7f4e487b7100000000000000000000000000000000000000000000000000000000600052604160045260246000fd5b6124ce8261215f565b810181811067ffffffffffffffff821117156124ed576124ec612496565b5b80604052505050565b6000612500612041565b905061250c82826124c5565b919050565b600067ffffffffffffffff82111561252c5761252b612496565b5b6125358261215f565b9050602081019050919050565b82818337600083830152505050565b600061256461255f84612511565b6124f6565b9050828152602081018484840111156125805761257f612491565b5b61258b848285612542565b509392505050565b600082601f8301126125a8576125a761248c565b5b81356125b8848260208601612551565b91505092915050565b600080600080608085870312156125db576125da61204b565b5b60006125e9878288016122a1565b94505060206125fa878288016122a1565b935050604061260b878288016121ec565b925050606085013567ffffffffffffffff81111561262c5761262b612050565b5b61263887828801612593565b91505092959194509250565b600067ffffffffffffffff82111561265f5761265e612496565b5b6126688261215f565b9050602081019050919050565b600061268861268384612644565b6124f6565b9050828152602081018484840111156126a4576126a3612491565b5b6126af848285612542565b509392505050565b600082601f8301126126cc576126cb61248c565b5b81356126dc848260208601612675565b91505092915050565b600080604083850312156126fc576126fb61204b565b5b600061270a858286016122a1565b925050602083013567ffffffffffffffff81111561272b5761272a612050565b5b612737858286016126b7565b9150509250929050565b600080604083850312156127585761275761204b565b5b6000612766858286016122a1565b9250506020612777858286016122a1565b9150509250929050565b7f4e487b7100000000000000000000000000000000000000000000000000000000600052602260045260246000fd5b600060028204905060018216806127c857607f821691505b602082108114156127dc576127db612781565b5b50919050565b7f4552433732313a20617070726f76616c20746f2063757272656e74206f776e6560008201527f7200000000000000000000000000000000000000000000000000000000000000602082015250565b600061283e60218361211b565b9150612849826127e2565b604082019050919050565b6000602082019050818103600083015261286d81612831565b9050919050565b7f4552433732313a20617070726f76652063616c6c6572206973206e6f7420746f60008201527f6b656e206f776e6572206e6f7220617070726f76656420666f7220616c6c0000602082015250565b60006128d0603e8361211b565b91506128db82612874565b604082019050919050565b600060208201905081810360008301526128ff816128c3565b9050919050565b7f4552433732313a2063616c6c6572206973206e6f7420746f6b656e206f776e6560008201527f72206e6f7220617070726f766564000000000000000000000000000000000000602082015250565b6000612962602e8361211b565b915061296d82612906565b604082019050919050565b6000602082019050818103600083015261299181612955565b9050919050565b7f4552433732313a20696e76616c696420746f6b656e2049440000000000000000600082015250565b60006129ce60188361211b565b91506129d982612998565b602082019050919050565b600060208201905081810360008301526129fd816129c1565b9050919050565b7f4552433732313a2061646472657373207a65726f206973206e6f74206120766160008201527f6c6964206f776e65720000000000000000000000000000000000000000000000602082015250565b6000612a6060298361211b565b9150612a6b82612a04565b604082019050919050565b60006020820190508181036000830152612a8f81612a53565b9050919050565b7f4e487b7100000000000000000000000000000000000000000000000000000000600052601160045260246000fd5b6000612ad0826121cb565b9150612adb836121cb565b9250827fffffffffffffffffffffffffffffffffffffffffffffffffffffffffffffffff03821115612b1057612b0f612a96565b5b828201905092915050565b7f4552433732313a207472616e736665722066726f6d20696e636f72726563742060008201527f6f776e6572000000000000000000000000000000000000000000000000000000602082015250565b6000612b7760258361211b565b9150612b8282612b1b565b604082019050919050565b60006020820190508181036000830152612ba681612b6a565b9050919050565b7f4552433732313a207472616e7366657220746f20746865207a65726f2061646460008201527f7265737300000000000000000000000000000000000000000000000000000000602082015250565b6000612c0960248361211b565b9150612c1482612bad565b604082019050919050565b60006020820190508181036000830152612c3881612bfc565b9050919050565b6000612c4a826121cb565b9150612c55836121cb565b925082821015612c6857612c67612a96565b5b828203905092915050565b7f4552433732313a20617070726f766520746f2063616c6c657200000000000000600082015250565b6000612ca960198361211b565b9150612cb482612c73565b602082019050919050565b60006020820190508181036000830152612cd881612c9c565b9050919050565b7f4552433732313a207472616e7366657220746f206e6f6e20455243373231526560008201527f63656976657220696d706c656d656e7465720000000000000000000000000000602082015250565b6000612d3b60328361211b565b9150612d4682612cdf565b604082019050919050565b60006020820190508181036000830152612d6a81612d2e565b9050919050565b600081905092915050565b6000612d8782612110565b612d918185612d71565b9350612da181856020860161212c565b80840191505092915050565b6000612db98285612d7c565b9150612dc58284612d7c565b91508190509392505050565b7f45524337323155524953746f726167653a2055524920736574206f66206e6f6e60008201527f6578697374656e7420746f6b656e000000000000000000000000000000000000602082015250565b6000612e2d602e8361211b565b9150612e3882612dd1565b604082019050919050565b60006020820190508181036000830152612e5c81612e20565b9050919050565b600081519050919050565b600082825260208201905092915050565b6000612e8a82612e63565b612e948185612e6e565b9350612ea481856020860161212c565b612ead8161215f565b840191505092915050565b6000608082019050612ecd6000830187612260565b612eda6020830186612260565b612ee76040830185612349565b8181036060830152612ef98184612e7f565b905095945050505050565b600081519050612f1381612081565b92915050565b600060208284031215612f2f57612f2e61204b565b5b6000612f3d84828501612f04565b91505092915050565b6000612f51826121cb565b91507fffffffffffffffffffffffffffffffffffffffffffffffffffffffffffffffff821415612f8457612f83612a96565b5b600182019050919050565b7f4e487b7100000000000000000000000000000000000000000000000000000000600052601260045260246000fd5b6000612fc9826121cb565b9150612fd4836121cb565b925082612fe457612fe3612f8f565b5b828204905092915050565b6000612ffa826121cb565b9150613005836121cb565b92508261301557613014612f8f565b5b828206905092915050565b7f4e487b7100000000000000000000000000000000000000000000000000000000600052603260045260246000fd5b7f4552433732313a206d696e7420746f20746865207a65726f2061646472657373600082015250565b600061308560208361211b565b91506130908261304f565b602082019050919050565b600060208201905081810360008301526130b481613078565b9050919050565b7f4552433732313a20746f6b656e20616c7265616479206d696e74656400000000600082015250565b60006130f1601c8361211b565b91506130fc826130bb565b602082019050919050565b60006020820190508181036000830152613120816130e4565b905091905056fea264697066735822122075502f44674c64770bfce89f4d524dc35ee55d719166739b6b9d43e9c90811f964736f6c63430008090033",
  "devdoc": {
    "kind": "dev",
    "methods": {
      "approve(address,uint256)": {
        "details": "See {IERC721-approve}."
      },
      "balanceOf(address)": {
        "details": "See {IERC721-balanceOf}."
      },
      "burn(uint256)": {
        "details": "Burns `tokenId`. See {ERC721-_burn}. Requirements: - The caller must own `tokenId` or be an approved operator."
      },
      "getApproved(uint256)": {
        "details": "See {IERC721-getApproved}."
      },
      "isApprovedForAll(address,address)": {
        "details": "See {IERC721-isApprovedForAll}."
      },
      "name()": {
        "details": "See {IERC721Metadata-name}."
      },
      "ownerOf(uint256)": {
        "details": "See {IERC721-ownerOf}."
      },
      "safeTransferFrom(address,address,uint256)": {
        "details": "See {IERC721-safeTransferFrom}."
      },
      "safeTransferFrom(address,address,uint256,bytes)": {
        "details": "See {IERC721-safeTransferFrom}."
      },
      "setApprovalForAll(address,bool)": {
        "details": "See {IERC721-setApprovalForAll}."
      },
      "supportsInterface(bytes4)": {
        "details": "See {IERC165-supportsInterface}."
      },
      "symbol()": {
        "details": "See {IERC721Metadata-symbol}."
      },
      "transferFrom(address,address,uint256)": {
        "details": "See {IERC721-transferFrom}."
      }
    },
    "version": 1
  },
  "userdoc": {
    "kind": "user",
    "methods": {},
    "version": 1
  },
  "storageLayout": {
    "storage": [
      {
        "astId": 117,
        "contract": "contracts/WarrantyCardNFT.sol:WarrantyCard",
        "label": "_name",
        "offset": 0,
        "slot": "0",
        "type": "t_string_storage"
      },
      {
        "astId": 119,
        "contract": "contracts/WarrantyCardNFT.sol:WarrantyCard",
        "label": "_symbol",
        "offset": 0,
        "slot": "1",
        "type": "t_string_storage"
      },
      {
        "astId": 123,
        "contract": "contracts/WarrantyCardNFT.sol:WarrantyCard",
        "label": "_owners",
        "offset": 0,
        "slot": "2",
        "type": "t_mapping(t_uint256,t_address)"
      },
      {
        "astId": 127,
        "contract": "contracts/WarrantyCardNFT.sol:WarrantyCard",
        "label": "_balances",
        "offset": 0,
        "slot": "3",
        "type": "t_mapping(t_address,t_uint256)"
      },
      {
        "astId": 131,
        "contract": "contracts/WarrantyCardNFT.sol:WarrantyCard",
        "label": "_tokenApprovals",
        "offset": 0,
        "slot": "4",
        "type": "t_mapping(t_uint256,t_address)"
      },
      {
        "astId": 137,
        "contract": "contracts/WarrantyCardNFT.sol:WarrantyCard",
        "label": "_operatorApprovals",
        "offset": 0,
        "slot": "5",
        "type": "t_mapping(t_address,t_mapping(t_address,t_bool))"
      },
      {
        "astId": 1135,
        "contract": "contracts/WarrantyCardNFT.sol:WarrantyCard",
        "label": "_tokenURIs",
        "offset": 0,
        "slot": "6",
        "type": "t_mapping(t_uint256,t_string_storage)"
      },
      {
        "astId": 1954,
        "contract": "contracts/WarrantyCardNFT.sol:WarrantyCard",
        "label": "_tokenIdCounter",
        "offset": 0,
        "slot": "7",
        "type": "t_struct(Counter)1597_storage"
      },
      {
        "astId": 1970,
        "contract": "contracts/WarrantyCardNFT.sol:WarrantyCard",
        "label": "i_nftCreator",
        "offset": 0,
        "slot": "8",
        "type": "t_address_payable"
      },
      {
        "astId": 1975,
        "contract": "contracts/WarrantyCardNFT.sol:WarrantyCard",
        "label": "tokenIdToNFTInfo",
        "offset": 0,
        "slot": "9",
        "type": "t_mapping(t_uint256,t_struct(nftInfo)1961_storage)"
      }
    ],
    "types": {
      "t_address": {
        "encoding": "inplace",
        "label": "address",
        "numberOfBytes": "20"
      },
      "t_address_payable": {
        "encoding": "inplace",
        "label": "address payable",
        "numberOfBytes": "20"
      },
      "t_bool": {
        "encoding": "inplace",
        "label": "bool",
        "numberOfBytes": "1"
      },
      "t_mapping(t_address,t_bool)": {
        "encoding": "mapping",
        "key": "t_address",
        "label": "mapping(address => bool)",
        "numberOfBytes": "32",
        "value": "t_bool"
      },
      "t_mapping(t_address,t_mapping(t_address,t_bool))": {
        "encoding": "mapping",
        "key": "t_address",
        "label": "mapping(address => mapping(address => bool))",
        "numberOfBytes": "32",
        "value": "t_mapping(t_address,t_bool)"
      },
      "t_mapping(t_address,t_uint256)": {
        "encoding": "mapping",
        "key": "t_address",
        "label": "mapping(address => uint256)",
        "numberOfBytes": "32",
        "value": "t_uint256"
      },
      "t_mapping(t_uint256,t_address)": {
        "encoding": "mapping",
        "key": "t_uint256",
        "label": "mapping(uint256 => address)",
        "numberOfBytes": "32",
        "value": "t_address"
      },
      "t_mapping(t_uint256,t_string_storage)": {
        "encoding": "mapping",
        "key": "t_uint256",
        "label": "mapping(uint256 => string)",
        "numberOfBytes": "32",
        "value": "t_string_storage"
      },
      "t_mapping(t_uint256,t_struct(nftInfo)1961_storage)": {
        "encoding": "mapping",
        "key": "t_uint256",
        "label": "mapping(uint256 => struct WarrantyCard.nftInfo)",
        "numberOfBytes": "32",
        "value": "t_struct(nftInfo)1961_storage"
      },
      "t_string_storage": {
        "encoding": "bytes",
        "label": "string",
        "numberOfBytes": "32"
      },
      "t_struct(Counter)1597_storage": {
        "encoding": "inplace",
        "label": "struct Counters.Counter",
        "members": [
          {
            "astId": 1596,
            "contract": "contracts/WarrantyCardNFT.sol:WarrantyCard",
            "label": "_value",
            "offset": 0,
            "slot": "0",
            "type": "t_uint256"
          }
        ],
        "numberOfBytes": "32"
      },
      "t_struct(nftInfo)1961_storage": {
        "encoding": "inplace",
        "label": "struct WarrantyCard.nftInfo",
        "members": [
          {
            "astId": 1956,
            "contract": "contracts/WarrantyCardNFT.sol:WarrantyCard",
            "label": "duration",
            "offset": 0,
            "slot": "0",
            "type": "t_uint256"
          },
          {
            "astId": 1958,
            "contract": "contracts/WarrantyCardNFT.sol:WarrantyCard",
            "label": "startTime",
            "offset": 0,
            "slot": "1",
            "type": "t_uint256"
          },
          {
            "astId": 1960,
            "contract": "contracts/WarrantyCardNFT.sol:WarrantyCard",
            "label": "endTime",
            "offset": 0,
            "slot": "2",
            "type": "t_uint256"
          }
        ],
        "numberOfBytes": "96"
      },
      "t_uint256": {
        "encoding": "inplace",
        "label": "uint256",
        "numberOfBytes": "32"
      }
    }
  }
}